20250910-00:02:34.713753 : 8=FIX.4.2|9=330|35=8|34=1962|49=ID1|52=20250910-04:02:34.713|56=ID2|1=ID6|6=32.98|11=ID3|14=10|17=ID5|20=0|30=ID7|31=32.98|32=10|37=ID4|38=10|39=2|40=2|44=32.98|54=2|55=SMCX|59=0|60=20250910-04:02:34.713|76=ID8|150=2|151=0|10=235|
20250910-00:06:14.467988 : 8=FIX.4.2|9=330|35=8|34=1979|49=ID1|52=20250910-04:06:14.467|56=ID2|1=ID12|6=105.79|11=ID9|14=5|17=ID11|20=0|30=ID7|31=105.79|32=5|37=ID10|38=5|39=2|40=2|44=105.79|54=1|55=CRWV|59=0|60=20250910-04:06:14.467|76=ID8|150=2|151=0|10=046|
20250910-00:06:27.983290 : 8=FIX.4.2|9=333|35=8|34=1982|49=ID1|52=20250910-04:06:27.983|56=ID2|1=ID16|6=347.61|11=ID13|14=23|17=ID15|20=0|30=ID7|31=347.61|32=23|37=ID14|38=23|39=2|40=2|44=347.61|54=2|55=TSLA|59=0|60=20250910-04:06:27.982|76=ID8|150=2|151=0|10=176|
20250910-00:06:49.075891 : 8=FIX.4.2|9=330|35=8|34=1985|49=ID1|52=20250910-04:06:49.075|56=ID2|1=ID12|6=164.4|11=ID17|14=10|17=ID19|20=0|30=ID7|31=164.4|32=10|37=ID18|38=10|39=2|40=2|44=164.4|54=1|55=PLTR|59=0|60=20250910-04:06:49.075|76=ID8|150=2|151=0|10=014|
20250910-00:07:12.533583 : 8=FIX.4.2|9=332|35=8|34=1988|49=ID1|52=20250910-04:07:12.533|56=ID2|1=ID12|6=25.91|11=ID20|14=69|17=ID22|20=0|30=ID7|31=25.91|32=69|37=ID21|38=100|39=1|40=2|44=25.91|54=1|55=SOFI|59=0|60=20250910-04:07:12.532|76=ID8|150=1|151=31|10=108|
20250910-00:07:12.533661 : 8=FIX.4.2|9=332|35=8|34=1989|49=ID1|52=20250910-04:07:12.533|56=ID2|1=ID12|6=25.91|11=ID20|14=100|17=ID23|20=0|30=ID7|31=25.91|32=31|37=ID21|38=100|39=2|40=2|44=25.91|54=1|55=SOFI|59=0|60=20250910-04:07:12.532|76=ID8|150=2|151=0|10=075|
20250910-00:09:58.145551 : 8=FIX.4.2|9=330|35=8|34=2004|49=ID1|52=20250910-04:09:58.145|56=ID2|1=ID27|6=174.14|11=ID24|14=1|17=ID26|20=0|30=ID7|31=174.14|32=1|37=ID25|38=5|39=1|40=2|44=174.14|54=1|55=NVDA|59=0|60=20250910-04:09:58.145|76=ID8|150=1|151=4|10=206|
20250910-00:10:49.187631 : 8=FIX.4.2|9=327|35=8|34=2017|49=ID1|52=20250910-04:10:49.187|56=ID2|1=ID31|6=105.9|11=ID28|14=1|17=ID30|20=0|30=ID7|31=105.9|32=1|37=ID29|38=1|39=2|40=2|44=105.9|54=1|55=CRWV|59=0|60=20250910-04:10:49.187|76=ID8|150=2|151=0|10=062|
20250910-00:10:55.575008 : 8=FIX.4.2|9=335|35=8|34=2019|49=ID1|52=20250910-04:10:55.574|56=ID2|1=ID35|6=26.72|11=ID32|14=100|17=ID34|20=0|30=ID7|31=26.72|32=100|37=ID33|38=693|39=1|40=2|44=26.72|54=1|55=SOLT|59=0|60=20250910-04:10:55.574|76=ID8|150=1|151=593|10=233|
20250910-00:11:00.631919 : 8=FIX.4.2|9=331|35=8|34=2020|49=ID1|52=20250910-04:11:00.631|56=ID2|1=ID27|6=174.196|11=ID36|14=5|17=ID37|20=0|30=ID7|31=174.21|32=4|37=ID25|38=5|39=2|40=2|44=174.21|54=1|55=NVDA|59=0|60=20250910-04:11:00.631|76=ID8|150=2|151=0|10=227|
20250910-00:13:39.740052 : 8=FIX.4.2|9=333|35=8|34=2033|49=ID1|52=20250910-04:13:39.740|56=ID2|1=ID35|6=26.72|11=ID38|14=643|17=ID40|20=0|30=ID7|31=26.72|32=643|37=ID39|38=643|39=2|40=2|44=26.72|54=1|55=SOLT|59=0|60=20250910-04:13:39.739|76=ID8|150=2|151=0|10=146|
20250910-00:14:12.369895 : 8=FIX.4.2|9=330|35=8|34=2035|49=ID1|52=20250910-04:14:12.369|56=ID2|1=ID44|6=82.71|11=ID41|14=10|17=ID43|20=0|30=ID7|31=82.71|32=10|37=ID42|38=10|39=2|40=2|44=82.71|54=2|55=NVDL|59=0|60=20250910-04:14:12.369|76=ID8|150=2|151=0|10=187|
20250910-00:15:35.778902 : 8=FIX.4.2|9=328|35=8|34=2040|49=ID1|52=20250910-04:15:35.778|56=ID2|1=ID48|6=2.6|11=ID45|14=11|17=ID47|20=0|30=ID7|31=2.6|32=11|37=ID46|38=300|39=1|40=2|44=2.58|54=2|55=SWIN|59=0|60=20250910-04:15:35.778|76=ID8|150=1|151=289|10=146|
20250910-00:15:35.778984 : 8=FIX.4.2|9=328|35=8|34=2041|49=ID1|52=20250910-04:15:35.778|56=ID2|1=ID48|6=2.6|11=ID45|14=54|17=ID49|20=0|30=ID7|31=2.6|32=43|37=ID46|38=300|39=1|40=2|44=2.58|54=2|55=SWIN|59=0|60=20250910-04:15:35.778|76=ID8|150=1|151=246|10=154|
20250910-00:15:35.779057 : 8=FIX.4.2|9=332|35=8|34=2042|49=ID1|52=20250910-04:15:35.779|56=ID2|1=ID48|6=2.5836|11=ID45|14=300|17=ID50|20=0|30=ID7|31=2.58|32=246|37=ID46|38=300|39=2|40=2|44=2.58|54=2|55=SWIN|59=0|60=20250910-04:15:35.778|76=ID8|150=2|151=0|10=107|
20250910-00:16:54.725791 : 8=FIX.4.2|9=323|35=8|34=2047|49=ID1|52=20250910-04:16:54.725|56=ID2|1=ID54|6=560|11=ID51|14=40|17=ID53|20=0|30=ID7|31=560|32=40|37=ID52|38=40|39=2|40=2|44=560|54=1|55=APP|59=0|60=20250910-04:16:54.725|76=ID8|150=2|151=0|10=101|
20250910-00:18:29.170714 : 8=FIX.4.2|9=332|35=8|34=2054|49=ID1|52=20250910-04:18:29.170|56=ID2|1=ID54|6=234.4|11=ID55|14=37|17=ID57|20=0|30=ID7|31=234.4|32=37|37=ID56|38=100|39=1|40=2|44=234.4|54=1|55=AAPL|59=0|60=20250910-04:18:29.170|76=ID8|150=1|151=63|10=055|
20250910-00:18:29.170787 : 8=FIX.4.2|9=331|35=8|34=2055|49=ID1|52=20250910-04:18:29.170|56=ID2|1=ID54|6=234.4|11=ID55|14=38|17=ID58|20=0|30=ID7|31=234.4|32=1|37=ID56|38=100|39=1|40=2|44=234.4|54=1|55=AAPL|59=0|60=20250910-04:18:29.170|76=ID8|150=1|151=62|10=000|
20250910-00:18:30.391816 : 8=FIX.4.2|9=332|35=8|34=2056|49=ID1|52=20250910-04:18:30.391|56=ID2|1=ID54|6=234.4|11=ID55|14=100|17=ID59|20=0|30=ID7|31=234.4|32=62|37=ID56|38=100|39=2|40=2|44=234.4|54=1|55=AAPL|59=0|60=20250910-04:18:30.391|76=ID8|150=2|151=0|10=038|
20250910-00:21:33.292275 : 8=FIX.4.2|9=336|35=8|34=2065|49=ID1|52=20250910-04:21:33.292|56=ID2|1=ID63|6=16.96|11=ID60|14=7445|17=ID62|20=0|30=ID7|31=16.96|32=7445|37=ID61|38=7445|39=2|40=2|44=16.96|54=1|55=SQQQ|59=0|60=20250910-04:21:33.291|76=ID8|150=2|151=0|10=065|
20250910-00:22:08.647628 : 8=FIX.4.2|9=333|35=8|34=2068|49=ID1|52=20250910-04:22:08.647|56=ID2|1=ID67|6=74.64|11=ID64|14=91|17=ID66|20=0|30=ID7|31=74.64|32=91|37=ID65|38=200|39=1|40=2|44=74.65|54=1|55=OKLO|59=0|60=20250910-04:22:08.647|76=ID8|150=1|151=109|10=109|
20250910-00:22:08.647703 : 8=FIX.4.2|9=333|35=8|34=2069|49=ID1|52=20250910-04:22:08.647|56=ID2|1=ID67|6=74.64|11=ID64|14=180|17=ID68|20=0|30=ID7|31=74.64|32=89|37=ID65|38=200|39=1|40=2|44=74.65|54=1|55=OKLO|59=0|60=20250910-04:22:08.647|76=ID8|150=1|151=20|10=110|
20250910-00:22:08.647768 : 8=FIX.4.2|9=336|35=8|34=2070|49=ID1|52=20250910-04:22:08.647|56=ID2|1=ID67|6=74.640374|11=ID64|14=187|17=ID69|20=0|30=ID7|31=74.65|32=7|37=ID65|38=200|39=1|40=2|44=74.65|54=1|55=OKLO|59=0|60=20250910-04:22:08.647|76=ID8|150=1|151=13|10=009|
20250910-00:22:08.647846 : 8=FIX.4.2|9=333|35=8|34=2071|49=ID1|52=20250910-04:22:08.647|56=ID2|1=ID67|6=74.641|11=ID64|14=200|17=ID70|20=0|30=ID7|31=74.65|32=13|37=ID65|38=200|39=2|40=2|44=74.65|54=1|55=OKLO|59=0|60=20250910-04:22:08.647|76=ID8|150=2|151=0|10=092|
20250910-00:27:56.554737 : 8=FIX.4.2|9=333|35=8|34=2090|49=ID1|52=20250910-04:27:56.554|56=ID2|1=ID35|6=26.78|11=ID71|14=780|17=ID73|20=0|30=ID7|31=26.78|32=780|37=ID72|38=780|39=2|40=2|44=26.78|54=2|55=SOLT|59=0|60=20250910-04:27:56.554|76=ID8|150=2|151=0|10=207|
20250910-00:31:53.059278 : 8=FIX.4.2|9=331|35=8|34=2106|49=ID1|52=20250910-04:31:53.059|56=ID2|1=ID77|6=97.09|11=ID74|14=12|17=ID76|20=0|30=ID7|31=97.09|32=12|37=ID75|38=56|39=1|40=2|44=97.09|54=2|55=NBIS|59=0|60=20250910-04:31:53.058|76=ID8|150=1|151=44|10=025|
20250910-00:33:29.543551 : 8=FIX.4.2|9=330|35=8|34=2116|49=ID1|52=20250910-04:33:29.543|56=ID2|1=ID77|6=97.09|11=ID74|14=56|17=ID78|20=0|30=ID7|31=97.09|32=44|37=ID75|38=56|39=2|40=2|44=97.09|54=2|55=NBIS|59=0|60=20250910-04:33:29.543|76=ID8|150=2|151=0|10=229|
20250910-00:33:45.507495 : 8=FIX.4.2|9=333|35=8|34=2118|49=ID1|52=20250910-04:33:45.507|56=ID2|1=ID82|6=174.24|11=ID79|14=13|17=ID81|20=0|30=ID7|31=174.24|32=13|37=ID80|38=13|39=2|40=2|44=174.24|54=2|55=NVDA|59=0|60=20250910-04:33:45.507|76=ID8|150=2|151=0|10=072|
20250910-00:34:09.113572 : 8=FIX.4.2|9=336|35=8|34=2121|49=ID1|52=20250910-04:34:09.113|56=ID2|1=ID86|6=1.67|11=ID83|14=2517|17=ID85|20=0|30=ID7|31=1.67|32=2517|37=ID84|38=6875|39=1|40=2|44=1.67|54=1|55=FFAI|59=0|60=20250910-04:34:09.113|76=ID8|150=1|151=4358|10=022|
20250910-00:34:09.113650 : 8=FIX.4.2|9=335|35=8|34=2122|49=ID1|52=20250910-04:34:09.113|56=ID2|1=ID86|6=1.67|11=ID83|14=2705|17=ID87|20=0|30=ID7|31=1.67|32=188|37=ID84|38=6875|39=1|40=2|44=1.67|54=1|55=FFAI|59=0|60=20250910-04:34:09.113|76=ID8|150=1|151=4170|10=225|
20250910-00:35:06.240250 : 8=FIX.4.2|9=326|35=8|34=2129|49=ID1|52=20250910-04:35:06.240|56=ID2|1=ID91|6=45.16|11=ID88|14=1|17=ID90|20=0|30=ID7|31=45.16|32=1|37=ID89|38=1|39=2|40=2|44=45.16|54=2|55=OXY|59=0|60=20250910-04:35:06.239|76=ID8|150=2|151=0|10=247|
20250910-00:35:13.121924 : 8=FIX.4.2|9=333|35=8|34=2130|49=ID1|52=20250910-04:35:13.121|56=ID2|1=ID86|6=1.67|11=ID83|14=6875|17=ID92|20=0|30=ID7|31=1.67|32=4170|37=ID84|38=6875|39=2|40=2|44=1.67|54=1|55=FFAI|59=0|60=20250910-04:35:13.121|76=ID8|150=2|151=0|10=108|
20250910-00:35:35.971094 : 8=FIX.4.2|9=333|35=8|34=2132|49=ID1|52=20250910-04:35:35.971|56=ID2|1=ID96|6=94.53|11=ID93|14=100|17=ID95|20=0|30=ID7|31=94.53|32=100|37=ID94|38=100|39=2|40=2|44=94.53|54=1|55=TQQQ|59=0|60=20250910-04:35:35.970|76=ID8|150=2|151=0|10=158|
20250910-00:35:40.955140 : 8=FIX.4.2|9=336|35=8|34=2133|49=ID1|52=20250910-04:35:40.955|56=ID2|1=ID100|6=105.87|11=ID97|14=100|17=ID99|20=0|30=ID7|31=105.87|32=100|37=ID98|38=100|39=2|40=2|44=105.87|54=2|55=CRWV|59=0|60=20250910-04:35:40.954|76=ID8|150=2|151=0|10=019|
20250910-00:37:35.787911 : 8=FIX.4.2|9=330|35=8|34=2140|49=ID1|52=20250910-04:37:35.787|56=ID2|1=ID104|6=315.5|11=ID101|14=10|17=ID103|20=0|30=ID7|31=315.5|32=10|37=ID102|38=10|39=2|40=2|44=315.5|54=2|55=ORCL|59=0|60=20250910-04:37:35.787|76=ID8|150=2|151=0|10=212|
20250910-00:38:44.665253 : 8=FIX.4.2|9=330|35=8|34=2147|49=ID1|52=20250910-04:38:44.665|56=ID2|1=ID108|6=1.66|11=ID105|14=50|17=ID107|20=0|30=ID7|31=1.66|32=50|37=ID106|38=500|39=1|40=2|44=1.66|54=1|55=FFAI|59=0|60=20250910-04:38:44.665|76=ID8|150=1|151=450|10=200|
20250910-00:39:11.636925 : 8=FIX.4.2|9=334|35=8|34=2151|49=ID1|52=20250910-04:39:11.636|56=ID2|1=ID112|6=52.48|11=ID109|14=372|17=ID111|20=0|30=ID7|31=52.48|32=372|37=ID110|38=400|39=1|40=2|44=52.48|54=2|55=ORCX|59=0|60=20250910-04:39:11.636|76=ID8|150=1|151=28|10=170|
20250910-00:39:53.251257 : 8=FIX.4.2|9=332|35=8|34=2153|49=ID1|52=20250910-04:39:53.251|56=ID2|1=ID112|6=52.48|11=ID109|14=400|17=ID113|20=0|30=ID7|31=52.48|32=28|37=ID110|38=400|39=2|40=2|44=52.48|54=2|55=ORCX|59=0|60=20250910-04:39:53.250|76=ID8|150=2|151=0|10=046|
20250910-00:39:59.694512 : 8=FIX.4.2|9=333|35=8|34=2154|49=ID1|52=20250910-04:39:59.694|56=ID2|1=ID117|6=348.41|11=ID114|14=7|17=ID116|20=0|30=ID7|31=348.41|32=7|37=ID115|38=181|39=1|40=2|44=348.41|54=2|55=UNH|59=0|60=20250910-04:39:59.694|76=ID8|150=1|151=174|10=180|
20250910-00:40:00.791852 : 8=FIX.4.2|9=335|35=8|34=2155|49=ID1|52=20250910-04:40:00.791|56=ID2|1=ID117|6=348.41|11=ID114|14=57|17=ID118|20=0|30=ID7|31=348.41|32=50|37=ID115|38=181|39=1|40=2|44=348.41|54=2|55=UNH|59=0|60=20250910-04:40:00.791|76=ID8|150=1|151=124|10=239|
20250910-00:40:18.013926 : 8=FIX.4.2|9=334|35=8|34=2156|49=ID1|52=20250910-04:40:18.013|56=ID2|1=ID117|6=348.41|11=ID114|14=62|17=ID119|20=0|30=ID7|31=348.41|32=5|37=ID115|38=181|39=1|40=2|44=348.41|54=2|55=UNH|59=0|60=20250910-04:40:18.013|76=ID8|150=1|151=119|10=170|
20250910-00:40:27.400011 : 8=FIX.4.2|9=335|35=8|34=2157|49=ID1|52=20250910-04:40:27.399|56=ID2|1=ID117|6=348.41|11=ID114|14=112|17=ID120|20=0|30=ID7|31=348.41|32=50|37=ID115|38=181|39=1|40=2|44=348.41|54=2|55=UNH|59=0|60=20250910-04:40:27.399|76=ID8|150=1|151=69|10=000|
20250910-00:40:44.781478 : 8=FIX.4.2|9=329|35=8|34=2158|49=ID1|52=20250910-04:40:44.781|56=ID2|1=ID124|6=54.35|11=ID121|14=31|17=ID123|20=0|30=ID7|31=54.35|32=31|37=ID122|38=31|39=2|40=2|44=54.35|54=1|55=NVO|59=0|60=20250910-04:40:44.781|76=ID8|150=2|151=0|10=181|
20250910-00:41:54.082154 : 8=FIX.4.2|9=331|35=8|34=2163|49=ID1|52=20250910-04:41:54.082|56=ID2|1=ID128|6=347.63|11=ID125|14=5|17=ID127|20=0|30=ID7|31=347.63|32=5|37=ID126|38=10|39=1|40=2|44=347.63|54=2|55=TSLA|59=0|60=20250910-04:41:54.081|76=ID8|150=1|151=5|10=036|
20250910-00:41:54.082258 : 8=FIX.4.2|9=332|35=8|34=2164|49=ID1|52=20250910-04:41:54.082|56=ID2|1=ID128|6=347.63|11=ID125|14=10|17=ID129|20=0|30=ID7|31=347.63|32=5|37=ID126|38=10|39=2|40=2|44=347.63|54=2|55=TSLA|59=0|60=20250910-04:41:54.082|76=ID8|150=2|151=0|10=075|
20250910-00:42:10.925020 : 8=FIX.4.2|9=330|35=8|34=2168|49=ID1|52=20250910-04:42:10.925|56=ID2|1=ID133|6=4.7|11=ID130|14=275|17=ID132|20=0|30=ID7|31=4.7|32=275|37=ID131|38=1000|39=1|40=2|44=4.7|54=2|55=RXRX|59=0|60=20250910-04:42:10.924|76=ID8|150=1|151=725|10=235|
20250910-00:42:10.925100 : 8=FIX.4.2|9=329|35=8|34=2169|49=ID1|52=20250910-04:42:10.925|56=ID2|1=ID133|6=4.7|11=ID130|14=295|17=ID134|20=0|30=ID7|31=4.7|32=20|37=ID131|38=1000|39=1|40=2|44=4.7|54=2|55=RXRX|59=0|60=20250910-04:42:10.924|76=ID8|150=1|151=705|10=177|
20250910-00:42:10.925167 : 8=FIX.4.2|9=329|35=8|34=2170|49=ID1|52=20250910-04:42:10.925|56=ID2|1=ID133|6=4.7|11=ID130|14=315|17=ID135|20=0|30=ID7|31=4.7|32=20|37=ID131|38=1000|39=1|40=2|44=4.7|54=2|55=RXRX|59=0|60=20250910-04:42:10.924|76=ID8|150=1|151=685|10=171|
20250910-00:42:46.290807 : 8=FIX.4.2|9=330|35=8|34=2172|49=ID1|52=20250910-04:42:46.290|56=ID2|1=ID139|6=67.35|11=ID136|14=20|17=ID138|20=0|30=ID7|31=67.35|32=20|37=ID137|38=20|39=2|40=2|44=67.35|54=2|55=MRVL|59=0|60=20250910-04:42:46.290|76=ID8|150=2|151=0|10=238|
20250910-00:43:10.272093 : 8=FIX.4.2|9=335|35=8|34=2175|49=ID1|52=20250910-04:43:10.272|56=ID2|1=ID117|6=348.41|11=ID114|14=134|17=ID140|20=0|30=ID7|31=348.41|32=22|37=ID115|38=181|39=1|40=2|44=348.41|54=2|55=UNH|59=0|60=20250910-04:43:10.271|76=ID8|150=1|151=47|10=221|
20250910-00:43:39.569520 : 8=FIX.4.2|9=334|35=8|34=2180|49=ID1|52=20250910-04:43:39.569|56=ID2|1=ID117|6=348.41|11=ID114|14=181|17=ID141|20=0|30=ID7|31=348.41|32=47|37=ID115|38=181|39=2|40=2|44=348.41|54=2|55=UNH|59=0|60=20250910-04:43:39.569|76=ID8|150=2|151=0|10=214|
20250910-00:43:47.696130 : 8=FIX.4.2|9=333|35=8|34=2182|49=ID1|52=20250910-04:43:47.696|56=ID2|1=ID145|6=0.534|11=ID142|14=600|17=ID144|20=0|30=ID7|31=0.534|32=600|37=ID143|38=600|39=2|40=2|44=0.534|54=1|55=IXHL|59=0|60=20250910-04:43:47.695|76=ID8|150=2|151=0|10=133|
20250910-00:44:35.249856 : 8=FIX.4.2|9=334|35=8|34=2186|49=ID1|52=20250910-04:44:35.249|56=ID2|1=ID149|6=17.08|11=ID146|14=54|17=ID148|20=0|30=ID7|31=17.08|32=50|37=ID147|38=3000|39=1|40=2|44=17.08|54=2|55=CHA|59=0|60=20250910-04:44:35.249|76=ID8|150=1|151=2946|10=137|
20250910-00:44:40.621615 : 8=FIX.4.2|9=337|35=8|34=2188|49=ID1|52=20250910-04:44:40.621|56=ID2|1=ID133|6=4.696117|11=ID150|14=515|17=ID151|20=0|30=ID7|31=4.69|32=200|37=ID131|38=1000|39=1|40=2|44=4.69|54=2|55=RXRX|59=0|60=20250910-04:44:40.621|76=ID8|150=1|151=485|10=093|
20250910-00:44:40.621687 : 8=FIX.4.2|9=337|35=8|34=2189|49=ID1|52=20250910-04:44:40.621|56=ID2|1=ID133|6=4.694406|11=ID150|14=715|17=ID152|20=0|30=ID7|31=4.69|32=200|37=ID131|38=1000|39=1|40=2|44=4.69|54=2|55=RXRX|59=0|60=20250910-04:44:40.621|76=ID8|150=1|151=285|10=095|
20250910-00:44:42.580254 : 8=FIX.4.2|9=330|35=8|34=2191|49=ID1|52=20250910-04:44:42.580|56=ID2|1=ID156|6=174.34|11=ID153|14=3|17=ID155|20=0|30=ID7|31=174.34|32=3|37=ID154|38=3|39=2|40=2|44=174.34|54=2|55=NVDA|59=0|60=20250910-04:44:42.579|76=ID8|150=2|151=0|10=190|
20250910-00:45:01.877320 : 8=FIX.4.2|9=335|35=8|34=2196|49=ID1|52=20250910-04:45:01.877|56=ID2|1=ID35|6=26.59|11=ID157|14=220|17=ID159|20=0|30=ID7|31=26.59|32=220|37=ID158|38=520|39=1|40=2|44=26.61|54=1|55=SOLT|59=0|60=20250910-04:45:01.876|76=ID8|150=1|151=300|10=250|
20250910-00:45:01.877397 : 8=FIX.4.2|9=333|35=8|34=2197|49=ID1|52=20250910-04:45:01.877|56=ID2|1=ID35|6=26.59|11=ID157|14=520|17=ID160|20=0|30=ID7|31=26.59|32=300|37=ID158|38=520|39=2|40=2|44=26.61|54=1|55=SOLT|59=0|60=20250910-04:45:01.876|76=ID8|150=2|151=0|10=156|
20250910-00:45:32.027107 : 8=FIX.4.2|9=334|35=8|34=2201|49=ID1|52=20250910-04:45:32.027|56=ID2|1=ID133|6=4.6903|11=ID161|14=1000|17=ID162|20=0|30=ID7|31=4.68|32=285|37=ID131|38=1000|39=2|40=2|44=4.68|54=2|55=RXRX|59=0|60=20250910-04:45:32.026|76=ID8|150=2|151=0|10=186|
20250910-00:46:37.013258 : 8=FIX.4.2|9=329|35=8|34=2211|49=ID1|52=20250910-04:46:37.013|56=ID2|1=ID156|6=348.43|11=ID163|14=2|17=ID165|20=0|30=ID7|31=348.43|32=2|37=ID164|38=2|39=2|40=2|44=348.43|54=2|55=UNH|59=0|60=20250910-04:46:37.012|76=ID8|150=2|151=0|10=146|
20250910-00:47:09.481175 : 8=FIX.4.2|9=328|35=8|34=2215|49=ID1|52=20250910-04:47:09.481|56=ID2|1=ID169|6=347.6|11=ID166|14=1|17=ID168|20=0|30=ID7|31=347.6|32=1|37=ID167|38=1|39=2|40=2|44=347.59|54=2|55=TSLA|59=0|60=20250910-04:47:09.480|76=ID8|150=2|151=0|10=195|
20250910-00:47:31.445410 : 8=FIX.4.2|9=330|35=8|34=2219|49=ID1|52=20250910-04:47:31.445|56=ID2|1=ID173|6=27.75|11=ID170|14=50|17=ID172|20=0|30=ID7|31=27.75|32=50|37=ID171|38=50|39=2|40=2|44=27.75|54=2|55=SOXL|59=0|60=20250910-04:47:31.445|76=ID8|150=2|151=0|10=014|
20250910-00:49:19.296018 : 8=FIX.4.2|9=334|35=8|34=2224|49=ID1|52=20250910-04:49:19.296|56=ID2|1=ID35|6=26.62|11=ID174|14=200|17=ID176|20=0|30=ID7|31=26.62|32=200|37=ID175|38=227|39=1|40=2|44=26.65|54=1|55=SOLT|59=0|60=20250910-04:49:19.295|76=ID8|150=1|151=27|10=206|
20250910-00:49:19.296095 : 8=FIX.4.2|9=332|35=8|34=2225|49=ID1|52=20250910-04:49:19.296|56=ID2|1=ID35|6=26.62|11=ID174|14=227|17=ID177|20=0|30=ID7|31=26.62|32=27|37=ID175|38=227|39=2|40=2|44=26.65|54=1|55=SOLT|59=0|60=20250910-04:49:19.295|76=ID8|150=2|151=0|10=120|
20250910-00:49:49.275286 : 8=FIX.4.2|9=333|35=8|34=2228|49=ID1|52=20250910-04:49:49.275|56=ID2|1=ID35|6=26.61|11=ID178|14=170|17=ID180|20=0|30=ID7|31=26.61|32=170|37=ID179|38=170|39=2|40=2|44=26.61|54=1|55=SOLT|59=0|60=20250910-04:49:49.274|76=ID8|150=2|151=0|10=164|
20250910-00:50:46.712534 : 8=FIX.4.2|9=330|35=8|34=2236|49=ID1|52=20250910-04:50:46.712|56=ID2|1=ID133|6=19.2|11=ID181|14=400|17=ID183|20=0|30=ID7|31=19.2|32=400|37=ID182|38=400|39=2|40=2|44=19.2|54=1|55=AIRO|59=0|60=20250910-04:50:46.712|76=ID8|150=2|151=0|10=184|
20250910-00:51:48.601076 : 8=FIX.4.2|9=323|35=8|34=2239|49=ID1|52=20250910-04:51:48.601|56=ID2|1=ID187|6=45.2|11=ID184|14=1|17=ID186|20=0|30=ID7|31=45.2|32=1|37=ID185|38=1|39=2|40=2|44=45.2|54=2|55=OXY|59=0|60=20250910-04:51:48.600|76=ID8|150=2|151=0|10=084|
20250910-00:51:49.542407 : 8=FIX.4.2|9=333|35=8|34=2240|49=ID1|52=20250910-04:51:49.542|56=ID2|1=ID35|6=26.61|11=ID188|14=20|17=ID190|20=0|30=ID7|31=26.61|32=20|37=ID189|38=514|39=1|40=2|44=26.61|54=2|55=SOLT|59=0|60=20250910-04:51:49.542|76=ID8|150=1|151=494|10=130|
20250910-00:52:23.439046 : 8=FIX.4.2|9=330|35=8|34=2244|49=ID1|52=20250910-04:52:23.439|56=ID2|1=ID194|6=239.78|11=ID191|14=7|17=ID193|20=0|30=ID7|31=239.78|32=7|37=ID192|38=7|39=2|40=2|44=239.78|54=1|55=GOOG|59=0|60=20250910-04:52:23.438|76=ID8|150=2|151=0|10=008|
20250910-00:54:22.233182 : 8=FIX.4.2|9=327|35=8|34=2249|49=ID1|52=20250910-04:54:22.233|56=ID2|1=ID198|6=148.7|11=ID195|14=8|17=ID197|20=0|30=ID7|31=148.7|32=8|37=ID196|38=8|39=2|40=2|44=148.7|54=2|55=BABA|59=0|60=20250910-04:54:22.232|76=ID8|150=2|151=0|10=088|
20250910-00:54:34.021622 : 8=FIX.4.2|9=333|35=8|34=2250|49=ID1|52=20250910-04:54:34.021|56=ID2|1=ID149|6=17.08|11=ID146|14=63|17=ID199|20=0|30=ID7|31=17.08|32=9|37=ID147|38=3000|39=1|40=2|44=17.08|54=2|55=CHA|59=0|60=20250910-04:54:34.021|76=ID8|150=1|151=2937|10=063|
20250910-00:56:14.080263 : 8=FIX.4.2|9=333|35=8|34=2258|49=ID1|52=20250910-04:56:14.080|56=ID2|1=ID203|6=148.68|11=ID200|14=50|17=ID202|20=0|30=ID7|31=148.68|32=50|37=ID201|38=50|39=2|40=2|44=148.68|54=1|55=BABA|59=0|60=20250910-04:56:14.079|76=ID8|150=2|151=0|10=109|
20250910-00:59:10.982824 : 8=FIX.4.2|9=336|35=8|34=2269|49=ID1|52=20250910-04:59:10.982|56=ID2|1=ID108|6=1.685575|11=ID204|14=339|17=ID205|20=0|30=ID7|31=1.69|32=289|37=ID106|38=500|39=1|40=2|44=1.69|54=1|55=FFAI|59=0|60=20250910-04:59:10.982|76=ID8|150=1|151=161|10=041|
20250910-00:59:27.289985 : 8=FIX.4.2|9=331|35=8|34=2270|49=ID1|52=20250910-04:59:27.289|56=ID2|1=ID108|6=1.687|11=ID204|14=500|17=ID206|20=0|30=ID7|31=1.69|32=161|37=ID106|38=500|39=2|40=2|44=1.69|54=1|55=FFAI|59=0|60=20250910-04:59:27.289|76=ID8|150=2|151=0|10=029|
20250910-00:59:30.568610 : 8=FIX.4.2|9=330|35=8|34=2272|49=ID1|52=20250910-04:59:30.568|56=ID2|1=ID210|6=318.71|11=ID207|14=1|17=ID209|20=0|30=ID7|31=318.71|32=1|37=ID208|38=1|39=2|40=2|44=318.83|54=1|55=ORCL|59=0|60=20250910-04:59:30.568|76=ID8|150=2|151=0|10=005|
20250910-01:00:02.492707 : 8=FIX.4.2|9=334|35=8|34=2274|49=ID1|52=20250910-05:00:02.492|56=ID2|1=ID214|6=25.2|11=ID211|14=200|17=ID213|20=0|30=ID7|31=25.2|32=200|37=ID212|38=4014|39=1|40=2|44=25.2|54=2|55=BILI|59=0|60=20250910-05:00:02.492|76=ID8|150=1|151=3814|10=116|
20250910-01:00:02.813825 : 8=FIX.4.2|9=334|35=8|34=2275|49=ID1|52=20250910-05:00:02.813|56=ID2|1=ID214|6=25.2|11=ID211|14=400|17=ID215|20=0|30=ID7|31=25.2|32=200|37=ID212|38=4014|39=1|40=2|44=25.2|54=2|55=BILI|59=0|60=20250910-05:00:02.813|76=ID8|150=1|151=3614|10=120|
20250910-01:00:03.129213 : 8=FIX.4.2|9=335|35=8|34=2276|49=ID1|52=20250910-05:00:03.129|56=ID2|1=ID214|6=25.2|11=ID211|14=1088|17=ID216|20=0|30=ID7|31=25.2|32=688|37=ID212|38=4014|39=1|40=2|44=25.2|54=2|55=BILI|59=0|60=20250910-05:00:03.129|76=ID8|150=1|151=2926|10=200|
20250910-01:00:03.129303 : 8=FIX.4.2|9=335|35=8|34=2277|49=ID1|52=20250910-05:00:03.129|56=ID2|1=ID214|6=25.2|11=ID211|14=1888|17=ID217|20=0|30=ID7|31=25.2|32=800|37=ID212|38=4014|39=1|40=2|44=25.2|54=2|55=BILI|59=0|60=20250910-05:00:03.129|76=ID8|150=1|151=2126|10=185|
20250910-01:00:03.135057 : 8=FIX.4.2|9=335|35=8|34=2278|49=ID1|52=20250910-05:00:03.135|56=ID2|1=ID214|6=25.2|11=ID211|14=2088|17=ID218|20=0|30=ID7|31=25.2|32=200|37=ID212|38=4014|39=1|40=2|44=25.2|54=2|55=BILI|59=0|60=20250910-05:00:03.134|76=ID8|150=1|151=1926|10=172|
20250910-01:00:03.456348 : 8=FIX.4.2|9=335|35=8|34=2279|49=ID1|52=20250910-05:00:03.456|56=ID2|1=ID214|6=25.2|11=ID211|14=2288|17=ID219|20=0|30=ID7|31=25.2|32=200|37=ID212|38=4014|39=1|40=2|44=25.2|54=2|55=BILI|59=0|60=20250910-05:00:03.456|76=ID8|150=1|151=1726|10=186|
20250910-01:00:03.986624 : 8=FIX.4.2|9=333|35=8|34=2280|49=ID1|52=20250910-05:00:03.986|56=ID2|1=ID214|6=25.2|11=ID211|14=4014|17=ID220|20=0|30=ID7|31=25.2|32=1726|37=ID212|38=4014|39=2|40=2|44=25.2|54=2|55=BILI|59=0|60=20250910-05:00:03.986|76=ID8|150=2|151=0|10=094|
20250910-01:00:04.438226 : 8=FIX.4.2|9=333|35=8|34=2281|49=ID1|52=20250910-05:00:04.438|56=ID2|1=ID203|6=148.56|11=ID221|14=50|17=ID223|20=0|30=ID7|31=148.56|32=50|37=ID222|38=50|39=2|40=2|44=148.56|54=1|55=BABA|59=0|60=20250910-05:00:04.438|76=ID8|150=2|151=0|10=061|
20250910-01:01:25.761488 : 8=FIX.4.2|9=324|35=8|34=2286|49=ID1|52=20250910-05:01:25.761|56=ID2|1=ID227|6=320|11=ID224|14=10|17=ID226|20=0|30=ID7|31=320|32=10|37=ID225|38=10|39=2|40=2|44=320|54=2|55=ORCL|59=0|60=20250910-05:01:25.760|76=ID8|150=2|151=0|10=145|
20250910-01:02:06.622792 : 8=FIX.4.2|9=335|35=8|34=2289|49=ID1|52=20250910-05:02:06.622|56=ID2|1=ID35|6=26.61|11=ID228|14=417|17=ID230|20=0|30=ID7|31=26.61|32=417|37=ID229|38=533|39=1|40=2|44=26.61|54=1|55=SOLT|59=0|60=20250910-05:02:06.622|76=ID8|150=1|151=116|10=244|
20250910-01:02:06.643574 : 8=FIX.4.2|9=333|35=8|34=2290|49=ID1|52=20250910-05:02:06.643|56=ID2|1=ID35|6=26.61|11=ID228|14=533|17=ID231|20=0|30=ID7|31=26.61|32=116|37=ID229|38=533|39=2|40=2|44=26.61|54=1|55=SOLT|59=0|60=20250910-05:02:06.643|76=ID8|150=2|151=0|10=134|
20250910-01:06:25.590093 : 8=FIX.4.2|9=335|35=8|34=2301|49=ID1|52=20250910-05:06:25.590|56=ID2|1=ID149|6=17.08|11=ID146|14=133|17=ID232|20=0|30=ID7|31=17.08|32=70|37=ID147|38=3000|39=1|40=2|44=17.08|54=2|55=CHA|59=0|60=20250910-05:06:25.589|76=ID8|150=1|151=2867|10=181|
20250910-01:06:51.969218 : 8=FIX.4.2|9=334|35=8|34=2303|49=ID1|52=20250910-05:06:51.969|56=ID2|1=ID149|6=17.08|11=ID146|14=136|17=ID233|20=0|30=ID7|31=17.08|32=3|37=ID147|38=3000|39=1|40=2|44=17.08|54=2|55=CHA|59=0|60=20250910-05:06:51.968|76=ID8|150=1|151=2864|10=142|
20250910-01:07:07.911457 : 8=FIX.4.2|9=333|35=8|34=2307|49=ID1|52=20250910-05:07:07.911|56=ID2|1=ID237|6=121.75|11=ID234|14=50|17=ID236|20=0|30=ID7|31=121.75|32=50|37=ID235|38=50|39=2|40=2|44=121.75|54=2|55=HOOD|59=0|60=20250910-05:07:07.911|76=ID8|150=2|151=0|10=105|
20250910-01:07:23.430881 : 8=FIX.4.2|9=331|35=8|34=2309|49=ID1|52=20250910-05:07:23.430|56=ID2|1=ID241|6=148.8|11=ID238|14=57|17=ID240|20=0|30=ID7|31=148.8|32=57|37=ID239|38=80|39=1|40=2|44=148.8|54=1|55=BABA|59=0|60=20250910-05:07:23.430|76=ID8|150=1|151=23|10=238|
20250910-01:07:28.408656 : 8=FIX.4.2|9=327|35=8|34=2311|49=ID1|52=20250910-05:07:28.408|56=ID2|1=ID245|6=52.86|11=ID242|14=3|17=ID244|20=0|30=ID7|31=52.86|32=3|37=ID243|38=3|39=2|40=2|44=52.63|54=2|55=LMND|59=0|60=20250910-05:07:28.408|76=ID8|150=2|151=0|10=088|
20250910-01:08:04.929400 : 8=FIX.4.2|9=330|35=8|34=2313|49=ID1|52=20250910-05:08:04.929|56=ID2|1=ID249|6=40.45|11=ID246|14=34|17=ID248|20=0|30=ID7|31=40.45|32=34|37=ID247|38=34|39=2|40=2|44=40.45|54=2|55=BABX|59=0|60=20250910-05:08:04.929|76=ID8|150=2|151=0|10=197|
20250910-01:08:25.218261 : 8=FIX.4.2|9=330|35=8|34=2316|49=ID1|52=20250910-05:08:25.218|56=ID2|1=ID245|6=19.95|11=ID250|14=10|17=ID252|20=0|30=ID7|31=19.95|32=10|37=ID251|38=10|39=2|40=2|44=19.95|54=2|55=OSCR|59=0|60=20250910-05:08:25.217|76=ID8|150=2|151=0|10=215|
20250910-01:09:05.050712 : 8=FIX.4.2|9=329|35=8|34=2320|49=ID1|52=20250910-05:09:05.050|56=ID2|1=ID256|6=318.3|11=ID253|14=1|17=ID255|20=0|30=ID7|31=318.3|32=1|37=ID254|38=50|39=1|40=2|44=318.3|54=2|55=COIN|59=0|60=20250910-05:09:05.050|76=ID8|150=1|151=49|10=155|
20250910-01:09:08.498081 : 8=FIX.4.2|9=336|35=8|34=2322|49=ID1|52=20250910-05:09:08.498|56=ID2|1=ID241|6=148.86325|11=ID257|14=80|17=ID258|20=0|30=ID7|31=149.02|32=23|37=ID239|38=80|39=2|40=2|44=149.02|54=1|55=BABA|59=0|60=20250910-05:09:08.497|76=ID8|150=2|151=0|10=237|
20250910-01:09:10.591930 : 8=FIX.4.2|9=323|35=8|34=2323|49=ID1|52=20250910-05:09:10.591|56=ID2|1=ID262|6=24|11=ID259|14=10|17=ID261|20=0|30=ID7|31=24|32=10|37=ID260|38=100|39=1|40=2|44=24|54=1|55=AAOI|59=0|60=20250910-05:09:10.591|76=ID8|150=1|151=90|10=131|
20250910-01:09:38.740202 : 8=FIX.4.2|9=326|35=8|34=2325|49=ID1|52=20250910-05:09:38.740|56=ID2|1=ID266|6=53.5|11=ID263|14=10|17=ID265|20=0|30=ID7|31=53.5|32=10|37=ID264|38=10|39=2|40=2|44=53.5|54=2|55=NVO|59=0|60=20250910-05:09:38.739|76=ID8|150=2|151=0|10=010|
20250910-01:10:33.429805 : 8=FIX.4.2|9=329|35=8|34=2327|49=ID1|52=20250910-05:10:33.429|56=ID2|1=ID256|6=318.3|11=ID253|14=2|17=ID267|20=0|30=ID7|31=318.3|32=1|37=ID254|38=50|39=1|40=2|44=318.3|54=2|55=COIN|59=0|60=20250910-05:10:33.429|76=ID8|150=1|151=48|10=172|
20250910-01:10:52.208077 : 8=FIX.4.2|9=329|35=8|34=2328|49=ID1|52=20250910-05:10:52.208|56=ID2|1=ID256|6=318.3|11=ID253|14=5|17=ID268|20=0|30=ID7|31=318.3|32=3|37=ID254|38=50|39=1|40=2|44=318.3|54=2|55=COIN|59=0|60=20250910-05:10:52.207|76=ID8|150=1|151=45|10=163|
20250910-01:11:19.750794 : 8=FIX.4.2|9=330|35=8|34=2334|49=ID1|52=20250910-05:11:19.750|56=ID2|1=ID266|6=149.17|11=ID269|14=4|17=ID271|20=0|30=ID7|31=149.17|32=4|37=ID270|38=4|39=2|40=2|44=149.17|54=2|55=BABA|59=0|60=20250910-05:11:19.750|76=ID8|150=2|151=0|10=175|
20250910-01:12:38.289392 : 8=FIX.4.2|9=333|35=8|34=2345|49=ID1|52=20250910-05:12:38.289|56=ID2|1=ID275|6=347.67|11=ID272|14=16|17=ID274|20=0|30=ID7|31=347.67|32=16|37=ID273|38=16|39=2|40=2|44=347.67|54=1|55=TSLA|59=0|60=20250910-05:12:38.289|76=ID8|150=2|151=0|10=191|
20250910-01:12:43.212371 : 8=FIX.4.2|9=331|35=8|34=2346|49=ID1|52=20250910-05:12:43.212|56=ID2|1=ID256|6=318.3|11=ID253|14=15|17=ID276|20=0|30=ID7|31=318.3|32=10|37=ID254|38=50|39=1|40=2|44=318.3|54=2|55=COIN|59=0|60=20250910-05:12:43.212|76=ID8|150=1|151=35|10=249|
20250910-01:12:45.199169 : 8=FIX.4.2|9=333|35=8|34=2348|49=ID1|52=20250910-05:12:45.199|56=ID2|1=ID280|6=174.18|11=ID277|14=20|17=ID279|20=0|30=ID7|31=174.18|32=20|37=ID278|38=20|39=2|40=2|44=174.18|54=2|55=NVDA|59=0|60=20250910-05:12:45.198|76=ID8|150=2|151=0|10=140|
20250910-01:13:00.795447 : 8=FIX.4.2|9=330|35=8|34=2352|49=ID1|52=20250910-05:13:00.795|56=ID2|1=ID284|6=118.51|11=ID281|14=8|17=ID283|20=0|30=ID7|31=118.51|32=8|37=ID282|38=8|39=2|40=2|44=118.51|54=1|55=CRCL|59=0|60=20250910-05:13:00.795|76=ID8|150=2|151=0|10=218|
20250910-01:13:29.050110 : 8=FIX.4.2|9=330|35=8|34=2355|49=ID1|52=20250910-05:13:29.050|56=ID2|1=ID256|6=318.3|11=ID253|14=21|17=ID285|20=0|30=ID7|31=318.3|32=6|37=ID254|38=50|39=1|40=2|44=318.3|54=2|55=COIN|59=0|60=20250910-05:13:29.049|76=ID8|150=1|151=29|10=213|
20250910-01:13:30.939662 : 8=FIX.4.2|9=330|35=8|34=2357|49=ID1|52=20250910-05:13:30.939|56=ID2|1=ID289|6=148.72|11=ID286|14=2|17=ID288|20=0|30=ID7|31=148.72|32=2|37=ID287|38=2|39=2|40=2|44=148.72|54=1|55=BABA|59=0|60=20250910-05:13:30.939|76=ID8|150=2|151=0|10=138|
20250910-01:13:41.693640 : 8=FIX.4.2|9=331|35=8|34=2360|49=ID1|52=20250910-05:13:41.693|56=ID2|1=ID289|6=148.7|11=ID290|14=18|17=ID292|20=0|30=ID7|31=148.7|32=18|37=ID291|38=18|39=2|40=2|44=148.72|54=1|55=BABA|59=0|60=20250910-05:13:41.693|76=ID8|150=2|151=0|10=229|
20250910-01:14:30.829694 : 8=FIX.4.2|9=320|35=8|34=2366|49=ID1|52=20250910-05:14:30.829|56=ID2|1=ID296|6=53|11=ID293|14=30|17=ID295|20=0|30=ID7|31=53|32=30|37=ID294|38=30|39=2|40=2|44=53|54=1|55=NVO|59=0|60=20250910-05:14:30.829|76=ID8|150=2|151=0|10=208|
20250910-01:14:34.086224 : 8=FIX.4.2|9=327|35=8|34=2369|49=ID1|52=20250910-05:14:34.086|56=ID2|1=ID300|6=239.77|11=ID297|14=7|17=ID299|20=0|30=ID7|31=239.77|32=7|37=ID298|38=7|39=2|40=2|44=240|54=1|55=GOOG|59=0|60=20250910-05:14:34.085|76=ID8|150=2|151=0|10=080|
20250910-01:14:58.408182 : 8=FIX.4.2|9=333|35=8|34=2373|49=ID1|52=20250910-05:14:58.408|56=ID2|1=ID304|6=146.49|11=ID301|14=16|17=ID303|20=0|30=ID7|31=146.49|32=16|37=ID302|38=40|39=1|40=2|44=146.49|54=1|55=STZ|59=0|60=20250910-05:14:58.407|76=ID8|150=1|151=24|10=143|
20250910-01:14:58.504803 : 8=FIX.4.2|9=332|35=8|34=2374|49=ID1|52=20250910-05:14:58.504|56=ID2|1=ID304|6=146.49|11=ID301|14=40|17=ID305|20=0|30=ID7|31=146.49|32=24|37=ID302|38=40|39=2|40=2|44=146.49|54=1|55=STZ|59=0|60=20250910-05:14:58.504|76=ID8|150=2|151=0|10=078|
20250910-01:14:59.956133 : 8=FIX.4.2|9=328|35=8|34=2376|49=ID1|52=20250910-05:14:59.956|56=ID2|1=ID309|6=34.23|11=ID306|14=30|17=ID308|20=0|30=ID7|31=34.23|32=30|37=ID307|38=30|39=2|40=2|44=34.24|54=1|55=JD|59=0|60=20250910-05:14:59.955|76=ID8|150=2|151=0|10=047|
20250910-01:16:27.390847 : 8=FIX.4.2|9=326|35=8|34=2389|49=ID1|52=20250910-05:16:27.390|56=ID2|1=ID313|6=45.22|11=ID310|14=1|17=ID312|20=0|30=ID7|31=45.22|32=1|37=ID311|38=1|39=2|40=2|44=45.22|54=2|55=OXY|59=0|60=20250910-05:16:27.390|76=ID8|150=2|151=0|10=024|
20250910-01:16:28.249585 : 8=FIX.4.2|9=329|35=8|34=2391|49=ID1|52=20250910-05:16:28.249|56=ID2|1=ID317|6=320.49|11=ID314|14=7|17=ID316|20=0|30=ID7|31=320.49|32=7|37=ID315|38=7|39=2|40=2|44=320.6|54=1|55=ORCL|59=0|60=20250910-05:16:28.249|76=ID8|150=2|151=0|10=194|
20250910-01:16:36.206599 : 8=FIX.4.2|9=330|35=8|34=2393|49=ID1|52=20250910-05:16:36.206|56=ID2|1=ID256|6=318.3|11=ID253|14=50|17=ID318|20=0|30=ID7|31=318.3|32=29|37=ID254|38=50|39=2|40=2|44=318.3|54=2|55=COIN|59=0|60=20250910-05:16:36.206|76=ID8|150=2|151=0|10=221|
20250910-01:16:47.394663 : 8=FIX.4.2|9=327|35=8|34=2398|49=ID1|52=20250910-05:16:47.394|56=ID2|1=ID322|6=320.46|11=ID319|14=5|17=ID321|20=0|30=ID7|31=320.46|32=5|37=ID320|38=5|39=2|40=2|44=320|54=2|55=ORCL|59=0|60=20250910-05:16:47.394|76=ID8|150=2|151=0|10=074|
20250910-01:17:06.240125 : 8=FIX.4.2|9=332|35=8|34=2402|49=ID1|52=20250910-05:17:06.240|56=ID2|1=ID326|6=343.04|11=ID323|14=5|17=ID325|20=0|30=ID7|31=343.04|32=5|37=ID324|38=78|39=1|40=2|44=343.04|54=1|55=AVGO|59=0|60=20250910-05:17:06.239|76=ID8|150=1|151=73|10=075|
20250910-01:17:20.286083 : 8=FIX.4.2|9=326|35=8|34=2405|49=ID1|52=20250910-05:17:20.286|56=ID2|1=ID330|6=255.4|11=ID327|14=4|17=ID329|20=0|30=ID7|31=255.4|32=4|37=ID328|38=4|39=2|40=2|44=255.4|54=1|55=TSM|59=0|60=20250910-05:17:20.285|76=ID8|150=2|151=0|10=001|
20250910-01:17:36.214242 : 8=FIX.4.2|9=326|35=8|34=2410|49=ID1|52=20250910-05:17:36.214|56=ID2|1=ID334|6=1.8|11=ID331|14=240|17=ID333|20=0|30=ID7|31=1.8|32=240|37=ID332|38=240|39=2|40=2|44=1.8|54=1|55=HKD|59=0|60=20250910-05:17:36.213|76=ID8|150=2|151=0|10=203|
20250910-01:18:17.018536 : 8=FIX.4.2|9=330|35=8|34=2414|49=ID1|52=20250910-05:18:17.018|56=ID2|1=ID317|6=318.96|11=ID335|14=7|17=ID337|20=0|30=ID7|31=318.96|32=7|37=ID336|38=7|39=2|40=2|44=318.96|54=2|55=ORCL|59=0|60=20250910-05:18:17.018|76=ID8|150=2|151=0|10=224|
20250910-01:18:24.697094 : 8=FIX.4.2|9=330|35=8|34=2416|49=ID1|52=20250910-05:18:24.697|56=ID2|1=ID266|6=25.34|11=ID338|14=10|17=ID340|20=0|30=ID7|31=25.34|32=10|37=ID339|38=10|39=2|40=2|44=25.34|54=2|55=BILI|59=0|60=20250910-05:18:24.696|76=ID8|150=2|151=0|10=196|
20250910-01:18:50.931637 : 8=FIX.4.2|9=338|35=8|34=2423|49=ID1|52=20250910-05:18:50.931|56=ID2|1=ID326|6=343.046875|11=ID341|14=16|17=ID342|20=0|30=ID7|31=343.05|32=11|37=ID324|38=78|39=1|40=2|44=343.05|54=1|55=AVGO|59=0|60=20250910-05:18:50.931|76=ID8|150=1|151=62|10=150|
20250910-01:18:54.068206 : 8=FIX.4.2|9=335|35=8|34=2425|49=ID1|52=20250910-05:18:54.068|56=ID2|1=ID326|6=318.63|11=ID343|14=42|17=ID345|20=0|30=ID7|31=318.63|32=42|37=ID344|38=201|39=1|40=2|44=318.4|54=2|55=ORCL|59=0|60=20250910-05:18:54.067|76=ID8|150=1|151=159|10=252|
20250910-01:18:54.068289 : 8=FIX.4.2|9=337|35=8|34=2426|49=ID1|52=20250910-05:18:54.068|56=ID2|1=ID326|6=318.629302|11=ID343|14=43|17=ID346|20=0|30=ID7|31=318.6|32=1|37=ID344|38=201|39=1|40=2|44=318.4|54=2|55=ORCL|59=0|60=20250910-05:18:54.067|76=ID8|150=1|151=158|10=102|
20250910-01:18:54.068356 : 8=FIX.4.2|9=339|35=8|34=2427|49=ID1|52=20250910-05:18:54.068|56=ID2|1=ID326|6=318.611379|11=ID343|14=58|17=ID347|20=0|30=ID7|31=318.56|32=15|37=ID344|38=201|39=1|40=2|44=318.4|54=2|55=ORCL|59=0|60=20250910-05:18:54.067|76=ID8|150=1|151=143|10=209|
20250910-01:18:54.068422 : 8=FIX.4.2|9=338|35=8|34=2428|49=ID1|52=20250910-05:18:54.068|56=ID2|1=ID326|6=318.53418|11=ID343|14=189|17=ID348|20=0|30=ID7|31=318.5|32=131|37=ID344|38=201|39=1|40=2|44=318.4|54=2|55=ORCL|59=0|60=20250910-05:18:54.067|76=ID8|150=1|151=12|10=150|
20250910-01:18:54.068497 : 8=FIX.4.2|9=336|35=8|34=2429|49=ID1|52=20250910-05:18:54.068|56=ID2|1=ID326|6=318.53285|11=ID343|14=193|17=ID349|20=0|30=ID7|31=318.47|32=4|37=ID344|38=201|39=1|40=2|44=318.4|54=2|55=ORCL|59=0|60=20250910-05:18:54.067|76=ID8|150=1|151=8|10=062|
20250910-01:18:54.068559 : 8=FIX.4.2|9=337|35=8|34=2430|49=ID1|52=20250910-05:18:54.068|56=ID2|1=ID326|6=318.530355|11=ID343|14=197|17=ID350|20=0|30=ID7|31=318.41|32=4|37=ID344|38=201|39=1|40=2|44=318.4|54=2|55=ORCL|59=0|60=20250910-05:18:54.067|76=ID8|150=1|151=4|10=097|
20250910-01:18:54.068622 : 8=FIX.4.2|9=336|35=8|34=2431|49=ID1|52=20250910-05:18:54.068|56=ID2|1=ID326|6=318.527761|11=ID343|14=201|17=ID351|20=0|30=ID7|31=318.4|32=4|37=ID344|38=201|39=2|40=2|44=318.4|54=2|55=ORCL|59=0|60=20250910-05:18:54.067|76=ID8|150=2|151=0|10=041|
20250910-01:19:06.095293 : 8=FIX.4.2|9=332|35=8|34=2432|49=ID1|52=20250910-05:19:06.095|56=ID2|1=ID355|6=72.52|11=ID352|14=150|17=ID354|20=0|30=ID7|31=72.52|32=150|37=ID353|38=150|39=2|40=2|44=72.52|54=1|55=ALB|59=0|60=20250910-05:19:06.095|76=ID8|150=2|151=0|10=249|
20250910-01:21:17.122507 : 8=FIX.4.2|9=333|35=8|34=2439|49=ID1|52=20250910-05:21:17.122|56=ID2|1=ID326|6=318.57|11=ID356|14=51|17=ID358|20=0|30=ID7|31=318.57|32=51|37=ID357|38=63|39=1|40=2|44=318.2|54=2|55=ORCL|59=0|60=20250910-05:21:17.122|76=ID8|150=1|151=12|10=145|
20250910-01:21:17.122583 : 8=FIX.4.2|9=336|35=8|34=2440|49=ID1|52=20250910-05:21:17.122|56=ID2|1=ID326|6=318.568095|11=ID356|14=63|17=ID359|20=0|30=ID7|31=318.56|32=12|37=ID357|38=63|39=2|40=2|44=318.2|54=2|55=ORCL|59=0|60=20250910-05:21:17.122|76=ID8|150=2|151=0|10=049|
20250910-01:21:23.506666 : 8=FIX.4.2|9=330|35=8|34=2442|49=ID1|52=20250910-05:21:23.506|56=ID2|1=ID363|6=52.12|11=ID360|14=30|17=ID362|20=0|30=ID7|31=52.12|32=30|37=ID361|38=54|39=1|40=2|44=52.14|54=1|55=NVO|59=0|60=20250910-05:21:23.506|76=ID8|150=1|151=24|10=200|
20250910-01:21:23.506744 : 8=FIX.4.2|9=333|35=8|34=2443|49=ID1|52=20250910-05:21:23.506|56=ID2|1=ID363|6=52.128889|11=ID360|14=54|17=ID364|20=0|30=ID7|31=52.14|32=24|37=ID361|38=54|39=2|40=2|44=52.14|54=1|55=NVO|59=0|60=20250910-05:21:23.506|76=ID8|150=2|151=0|10=134|
20250910-01:21:26.805446 : 8=FIX.4.2|9=331|35=8|34=2445|49=ID1|52=20250910-05:21:26.805|56=ID2|1=ID368|6=1.7|11=ID365|14=314|17=ID367|20=0|30=ID7|31=1.7|32=314|37=ID366|38=6787|39=1|40=2|44=1.7|54=1|55=FFAI|59=0|60=20250910-05:21:26.805|76=ID8|150=1|151=6473|10=010|
20250910-01:21:26.805517 : 8=FIX.4.2|9=333|35=8|34=2446|49=ID1|52=20250910-05:21:26.805|56=ID2|1=ID368|6=1.7|11=ID365|14=2119|17=ID369|20=0|30=ID7|31=1.7|32=1805|37=ID366|38=6787|39=1|40=2|44=1.7|54=1|55=FFAI|59=0|60=20250910-05:21:26.805|76=ID8|150=1|151=4668|10=126|
20250910-01:22:08.821257 : 8=FIX.4.2|9=330|35=8|34=2450|49=ID1|52=20250910-05:22:08.821|56=ID2|1=ID373|6=6.67|11=ID370|14=43|17=ID372|20=0|30=ID7|31=6.67|32=43|37=ID371|38=300|39=1|40=2|44=6.67|54=1|55=SOXS|59=0|60=20250910-05:22:08.821|76=ID8|150=1|151=257|10=007|
20250910-01:22:15.815160 : 8=FIX.4.2|9=329|35=8|34=2451|49=ID1|52=20250910-05:22:15.815|56=ID2|1=ID377|6=6.15|11=ID374|14=221|17=ID376|20=0|30=ID7|31=6.15|32=221|37=ID375|38=221|39=2|40=2|44=6.15|54=1|55=NIO|59=0|60=20250910-05:22:15.814|76=ID8|150=2|151=0|10=126|
20250910-01:22:15.815265 : 8=FIX.4.2|9=329|35=8|34=2452|49=ID1|52=20250910-05:22:15.815|56=ID2|1=ID381|6=6.15|11=ID378|14=500|17=ID380|20=0|30=ID7|31=6.15|32=500|37=ID379|38=500|39=2|40=2|44=6.15|54=1|55=NIO|59=0|60=20250910-05:22:15.814|76=ID8|150=2|151=0|10=096|
20250910-01:23:31.526085 : 8=FIX.4.2|9=330|35=8|34=2460|49=ID1|52=20250910-05:23:31.526|56=ID2|1=ID385|6=149.5|11=ID382|14=95|17=ID384|20=0|30=ID7|31=149.5|32=95|37=ID383|38=95|39=2|40=2|44=149.5|54=2|55=BABA|59=0|60=20250910-05:23:31.525|76=ID8|150=2|151=0|10=229|
20250910-01:24:01.034687 : 8=FIX.4.2|9=322|35=8|34=2463|49=ID1|52=20250910-05:24:01.034|56=ID2|1=ID262|6=24|11=ID259|14=11|17=ID386|20=0|30=ID7|31=24|32=1|37=ID260|38=100|39=1|40=2|44=24|54=1|55=AAOI|59=0|60=20250910-05:24:01.034|76=ID8|150=1|151=89|10=070|
20250910-01:24:08.932588 : 8=FIX.4.2|9=330|35=8|34=2464|49=ID1|52=20250910-05:24:08.932|56=ID2|1=ID203|6=149.5|11=ID387|14=50|17=ID389|20=0|30=ID7|31=149.5|32=50|37=ID388|38=50|39=2|40=2|44=149.5|54=1|55=BABA|59=0|60=20250910-05:24:08.932|76=ID8|150=2|151=0|10=194|
20250910-01:24:16.681468 : 8=FIX.4.2|9=330|35=8|34=2466|49=ID1|52=20250910-05:24:16.681|56=ID2|1=ID363|6=174.02|11=ID390|14=20|17=ID392|20=0|30=ID7|31=174.02|32=20|37=ID391|38=20|39=2|40=2|44=174|54=2|55=NVDA|59=0|60=20250910-05:24:16.681|76=ID8|150=2|151=0|10=223|
20250910-01:24:59.770389 : 8=FIX.4.2|9=333|35=8|34=2473|49=ID1|52=20250910-05:24:59.770|56=ID2|1=ID396|6=317.76|11=ID393|14=20|17=ID395|20=0|30=ID7|31=317.76|32=20|37=ID394|38=20|39=2|40=2|44=317.76|54=2|55=ORCL|59=0|60=20250910-05:24:59.770|76=ID8|150=2|151=0|10=139|
20250910-01:25:04.365746 : 8=FIX.4.2|9=328|35=8|34=2477|49=ID1|52=20250910-05:25:04.365|56=ID2|1=ID363|6=51.75|11=ID397|14=58|17=ID399|20=0|30=ID7|31=51.75|32=58|37=ID398|38=58|39=2|40=2|44=51.8|54=1|55=NVO|59=0|60=20250910-05:25:04.365|76=ID8|150=2|151=0|10=163|
20250910-01:25:37.642794 : 8=FIX.4.2|9=330|35=8|34=2479|49=ID1|52=20250910-05:25:37.642|56=ID2|1=ID373|6=6.67|11=ID370|14=300|17=ID400|20=0|30=ID7|31=6.67|32=257|37=ID371|38=300|39=2|40=2|44=6.67|54=1|55=SOXS|59=0|60=20250910-05:25:37.642|76=ID8|150=2|151=0|10=032|
20250910-01:26:00.294611 : 8=FIX.4.2|9=329|35=8|34=2482|49=ID1|52=20250910-05:26:00.294|56=ID2|1=ID404|6=8.31|11=ID401|14=165|17=ID403|20=0|30=ID7|31=8.31|32=165|37=ID402|38=165|39=2|40=2|44=8.31|54=2|55=BGL|59=0|60=20250910-05:26:00.294|76=ID8|150=2|151=0|10=147|
20250910-01:26:10.058569 : 8=FIX.4.2|9=330|35=8|34=2484|49=ID1|52=20250910-05:26:10.058|56=ID2|1=ID363|6=174.01|11=ID405|14=20|17=ID407|20=0|30=ID7|31=174.01|32=20|37=ID406|38=20|39=2|40=2|44=174|54=2|55=NVDA|59=0|60=20250910-05:26:10.058|76=ID8|150=2|151=0|10=221|
20250910-01:26:42.551410 : 8=FIX.4.2|9=324|35=8|34=2490|49=ID1|52=20250910-05:26:42.551|56=ID2|1=ID411|6=197|11=ID408|14=35|17=ID410|20=0|30=ID7|31=197|32=35|37=ID409|38=35|39=2|40=2|44=197|54=2|55=PANW|59=0|60=20250910-05:26:42.551|76=ID8|150=2|151=0|10=177|
20250910-01:26:42.720536 : 8=FIX.4.2|9=333|35=8|34=2491|49=ID1|52=20250910-05:26:42.720|56=ID2|1=ID241|6=149.38|11=ID412|14=25|17=ID414|20=0|30=ID7|31=149.38|32=25|37=ID413|38=25|39=2|40=2|44=149.38|54=1|55=BABA|59=0|60=20250910-05:26:42.720|76=ID8|150=2|151=0|10=070|
20250910-01:26:42.720618 : 8=FIX.4.2|9=333|35=8|34=2492|49=ID1|52=20250910-05:26:42.720|56=ID2|1=ID203|6=149.38|11=ID415|14=50|17=ID417|20=0|30=ID7|31=149.38|32=50|37=ID416|38=50|39=2|40=2|44=149.38|54=1|55=BABA|59=0|60=20250910-05:26:42.720|76=ID8|150=2|151=0|10=094|
20250910-01:26:47.567359 : 8=FIX.4.2|9=330|35=8|34=2495|49=ID1|52=20250910-05:26:47.567|56=ID2|1=ID363|6=51.12|11=ID418|14=38|17=ID420|20=0|30=ID7|31=51.12|32=38|37=ID419|38=57|39=1|40=2|44=51.12|54=1|55=NVO|59=0|60=20250910-05:26:47.567|76=ID8|150=1|151=19|10=015|
20250910-01:26:49.101139 : 8=FIX.4.2|9=329|35=8|34=2496|49=ID1|52=20250910-05:26:49.101|56=ID2|1=ID363|6=51.12|11=ID418|14=57|17=ID421|20=0|30=ID7|31=51.12|32=19|37=ID419|38=57|39=2|40=2|44=51.12|54=1|55=NVO|59=0|60=20250910-05:26:49.100|76=ID8|150=2|151=0|10=199|
20250910-01:27:42.660491 : 8=FIX.4.2|9=326|35=8|34=2500|49=ID1|52=20250910-05:27:42.660|56=ID2|1=ID425|6=45.2|11=ID422|14=33|17=ID424|20=0|30=ID7|31=45.2|32=33|37=ID423|38=33|39=2|40=2|44=45.2|54=1|55=OXY|59=0|60=20250910-05:27:42.660|76=ID8|150=2|151=0|10=017|
20250910-01:27:55.213785 : 8=FIX.4.2|9=329|35=8|34=2503|49=ID1|52=20250910-05:27:55.213|56=ID2|1=ID429|6=51.02|11=ID426|14=70|17=ID428|20=0|30=ID7|31=51.02|32=70|37=ID427|38=70|39=2|40=2|44=51.02|54=1|55=NVO|59=0|60=20250910-05:27:55.213|76=ID8|150=2|151=0|10=169|
20250910-01:28:36.042243 : 8=FIX.4.2|9=330|35=8|34=2506|49=ID1|52=20250910-05:28:36.042|56=ID2|1=ID433|6=174.09|11=ID430|14=1|17=ID432|20=0|30=ID7|31=174.09|32=1|37=ID431|38=1|39=2|40=2|44=174.09|54=2|55=NVDA|59=0|60=20250910-05:28:36.042|76=ID8|150=2|151=0|10=255|
20250910-01:29:18.812988 : 8=FIX.4.2|9=330|35=8|34=2510|49=ID1|52=20250910-05:29:18.812|56=ID2|1=ID437|6=165.5|11=ID434|14=80|17=ID436|20=0|30=ID7|31=165.5|32=80|37=ID435|38=80|39=2|40=2|44=165.5|54=2|55=PLTR|59=0|60=20250910-05:29:18.812|76=ID8|150=2|151=0|10=247|
20250910-01:29:34.461615 : 8=FIX.4.2|9=330|35=8|34=2512|49=ID1|52=20250910-05:29:34.461|56=ID2|1=ID363|6=174.1|11=ID438|14=20|17=ID440|20=0|30=ID7|31=174.1|32=20|37=ID439|38=20|39=2|40=2|44=174.1|54=2|55=NVDA|59=0|60=20250910-05:29:34.461|76=ID8|150=2|151=0|10=191|
20250910-01:29:54.515991 : 8=FIX.4.2|9=329|35=8|34=2515|49=ID1|52=20250910-05:29:54.515|56=ID2|1=ID363|6=50.97|11=ID441|14=60|17=ID443|20=0|30=ID7|31=50.97|32=60|37=ID442|38=60|39=2|40=2|44=50.98|54=1|55=NVO|59=0|60=20250910-05:29:54.515|76=ID8|150=2|151=0|10=215|
20250910-01:30:08.013844 : 8=FIX.4.2|9=324|35=8|34=2518|49=ID1|52=20250910-05:30:08.013|56=ID2|1=ID447|6=26.01|11=ID444|14=5|17=ID446|20=0|30=ID7|31=26.01|32=5|37=ID445|38=5|39=2|40=2|44=26|54=2|55=DXYZ|59=0|60=20250910-05:30:08.013|76=ID8|150=2|151=0|10=168|
20250910-01:30:12.162412 : 8=FIX.4.2|9=333|35=8|34=2519|49=ID1|52=20250910-05:30:12.162|56=ID2|1=ID451|6=16.95|11=ID448|14=250|17=ID450|20=0|30=ID7|31=16.95|32=250|37=ID449|38=250|39=2|40=2|44=16.95|54=1|55=SQQQ|59=0|60=20250910-05:30:12.162|76=ID8|150=2|151=0|10=137|
20250910-01:30:12.162516 : 8=FIX.4.2|9=330|35=8|34=2520|49=ID1|52=20250910-05:30:12.162|56=ID2|1=ID455|6=16.95|11=ID452|14=30|17=ID454|20=0|30=ID7|31=16.95|32=30|37=ID453|38=30|39=2|40=2|44=16.95|54=1|55=SQQQ|59=0|60=20250910-05:30:12.162|76=ID8|150=2|151=0|10=154|
20250910-01:30:52.078525 : 8=FIX.4.2|9=326|35=8|34=2525|49=ID1|52=20250910-05:30:52.078|56=ID2|1=ID459|6=11|11=ID456|14=356|17=ID458|20=0|30=ID7|31=11|32=356|37=ID457|38=603|39=1|40=2|44=11|54=2|55=UVIX|59=0|60=20250910-05:30:52.078|76=ID8|150=1|151=247|10=067|
20250910-01:30:52.078607 : 8=FIX.4.2|9=324|35=8|34=2526|49=ID1|52=20250910-05:30:52.078|56=ID2|1=ID459|6=11|11=ID456|14=603|17=ID460|20=0|30=ID7|31=11|32=247|37=ID457|38=603|39=2|40=2|44=11|54=2|55=UVIX|59=0|60=20250910-05:30:52.078|76=ID8|150=2|151=0|10=214|
20250910-01:30:55.926409 : 8=FIX.4.2|9=328|35=8|34=2529|49=ID1|52=20250910-05:30:55.926|56=ID2|1=ID309|6=23.18|11=ID461|14=44|17=ID463|20=0|30=ID7|31=23.18|32=44|37=ID462|38=44|39=2|40=2|44=23.2|54=1|55=UCO|59=0|60=20250910-05:30:55.926|76=ID8|150=2|151=0|10=099|
20250910-01:31:00.025516 : 8=FIX.4.2|9=332|35=8|34=2531|49=ID1|52=20250910-05:31:00.025|56=ID2|1=ID459|6=50.67|11=ID464|14=243|17=ID466|20=0|30=ID7|31=50.67|32=243|37=ID465|38=243|39=2|40=2|44=50.67|54=1|55=NVO|59=0|60=20250910-05:31:00.025|76=ID8|150=2|151=0|10=035|
20250910-01:31:15.263824 : 8=FIX.4.2|9=327|35=8|34=2535|49=ID1|52=20250910-05:31:15.263|56=ID2|1=ID470|6=1.7|11=ID467|14=780|17=ID469|20=0|30=ID7|31=1.7|32=780|37=ID468|38=780|39=2|40=2|44=1.7|54=2|55=FFAI|59=0|60=20250910-05:31:15.263|76=ID8|150=2|151=0|10=051|
20250910-01:31:40.079701 : 8=FIX.4.2|9=333|35=8|34=2540|49=ID1|52=20250910-05:31:40.079|56=ID2|1=ID474|6=255.46|11=ID471|14=2|17=ID473|20=0|30=ID7|31=255.46|32=2|37=ID472|38=122|39=1|40=2|44=255.46|54=2|55=TSM|59=0|60=20250910-05:31:40.079|76=ID8|150=1|151=120|10=101|
20250910-01:31:43.251179 : 8=FIX.4.2|9=330|35=8|34=2542|49=ID1|52=20250910-05:31:43.251|56=ID2|1=ID478|6=6.67|11=ID475|14=200|17=ID477|20=0|30=ID7|31=6.67|32=200|37=ID476|38=200|39=2|40=2|44=6.67|54=1|55=SOXS|59=0|60=20250910-05:31:43.251|76=ID8|150=2|151=0|10=246|
20250910-01:32:03.568348 : 8=FIX.4.2|9=333|35=8|34=2548|49=ID1|52=20250910-05:32:03.568|56=ID2|1=ID203|6=148.98|11=ID479|14=50|17=ID481|20=0|30=ID7|31=148.98|32=50|37=ID480|38=50|39=2|40=2|44=148.98|54=1|55=BABA|59=0|60=20250910-05:32:03.568|76=ID8|150=2|151=0|10=118|
20250910-01:32:04.338374 : 8=FIX.4.2|9=333|35=8|34=2549|49=ID1|52=20250910-05:32:04.338|56=ID2|1=ID474|6=255.46|11=ID471|14=4|17=ID482|20=0|30=ID7|31=255.46|32=2|37=ID472|38=122|39=1|40=2|44=255.46|54=2|55=TSM|59=0|60=20250910-05:32:04.338|76=ID8|150=1|151=118|10=135|
20250910-01:32:06.992108 : 8=FIX.4.2|9=333|35=8|34=2552|49=ID1|52=20250910-05:32:06.992|56=ID2|1=ID474|6=255.46|11=ID471|14=5|17=ID483|20=0|30=ID7|31=255.46|32=1|37=ID472|38=122|39=1|40=2|44=255.46|54=2|55=TSM|59=0|60=20250910-05:32:06.991|76=ID8|150=1|151=117|10=139|
20250910-01:32:07.179816 : 8=FIX.4.2|9=333|35=8|34=2554|49=ID1|52=20250910-05:32:07.179|56=ID2|1=ID363|6=174.13|11=ID484|14=40|17=ID486|20=0|30=ID7|31=174.13|32=40|37=ID485|38=40|39=2|40=2|44=174.13|54=2|55=NVDA|59=0|60=20250910-05:32:07.179|76=ID8|150=2|151=0|10=134|
20250910-01:32:17.622339 : 8=FIX.4.2|9=335|35=8|34=2560|49=ID1|52=20250910-05:32:17.622|56=ID2|1=ID474|6=255.46|11=ID471|14=104|17=ID487|20=0|30=ID7|31=255.46|32=99|37=ID472|38=122|39=1|40=2|44=255.46|54=2|55=TSM|59=0|60=20250910-05:32:17.622|76=ID8|150=1|151=18|10=241|
20250910-01:32:31.010680 : 8=FIX.4.2|9=332|35=8|34=2563|49=ID1|52=20250910-05:32:31.010|56=ID2|1=ID203|6=148.88|11=ID488|14=6|17=ID490|20=0|30=ID7|31=148.88|32=6|37=ID489|38=50|39=1|40=2|44=148.88|54=1|55=BABA|59=0|60=20250910-05:32:31.010|76=ID8|150=1|151=44|10=019|
20250910-01:32:44.583890 : 8=FIX.4.2|9=334|35=8|34=2565|49=ID1|52=20250910-05:32:44.583|56=ID2|1=ID474|6=255.46|11=ID471|14=122|17=ID491|20=0|30=ID7|31=255.46|32=18|37=ID472|38=122|39=2|40=2|44=255.46|54=2|55=TSM|59=0|60=20250910-05:32:44.583|76=ID8|150=2|151=0|10=199|
20250910-01:32:47.294860 : 8=FIX.4.2|9=329|35=8|34=2567|49=ID1|52=20250910-05:32:47.294|56=ID2|1=ID363|6=50.41|11=ID492|14=50|17=ID494|20=0|30=ID7|31=50.41|32=50|37=ID493|38=50|39=2|40=2|44=50.41|54=1|55=NVO|59=0|60=20250910-05:32:47.294|76=ID8|150=2|151=0|10=191|
20250910-01:32:47.512744 : 8=FIX.4.2|9=326|35=8|34=2568|49=ID1|52=20250910-05:32:47.512|56=ID2|1=ID498|6=50.6|11=ID495|14=20|17=ID497|20=0|30=ID7|31=50.6|32=20|37=ID496|38=20|39=2|40=2|44=50.6|54=2|55=NVO|59=0|60=20250910-05:32:47.512|76=ID8|150=2|151=0|10=233|
20250910-01:32:50.901491 : 8=FIX.4.2|9=333|35=8|34=2569|49=ID1|52=20250910-05:32:50.901|56=ID2|1=ID502|6=174.03|11=ID499|14=16|17=ID501|20=0|30=ID7|31=174.03|32=16|37=ID500|38=16|39=2|40=2|44=174.03|54=1|55=NVDA|59=0|60=20250910-05:32:50.901|76=ID8|150=2|151=0|10=087|
20250910-01:33:15.092528 : 8=FIX.4.2|9=331|35=8|34=2574|49=ID1|52=20250910-05:33:15.092|56=ID2|1=ID506|6=561.79|11=ID503|14=15|17=ID505|20=0|30=ID7|31=561.79|32=15|37=ID504|38=15|39=2|40=2|44=561.79|54=2|55=APP|59=0|60=20250910-05:33:15.092|76=ID8|150=2|151=0|10=039|
20250910-01:33:31.461109 : 8=FIX.4.2|9=330|35=8|34=2581|49=ID1|52=20250910-05:33:31.461|56=ID2|1=ID510|6=79.77|11=ID507|14=10|17=ID509|20=0|30=ID7|31=79.77|32=10|37=ID508|38=16|39=1|40=2|44=79.77|54=1|55=ROBN|59=0|60=20250910-05:33:31.460|76=ID8|150=1|151=6|10=227|
20250910-01:33:33.721439 : 8=FIX.4.2|9=329|35=8|34=2582|49=ID1|52=20250910-05:33:33.721|56=ID2|1=ID510|6=79.77|11=ID507|14=16|17=ID511|20=0|30=ID7|31=79.77|32=6|37=ID508|38=16|39=2|40=2|44=79.77|54=1|55=ROBN|59=0|60=20250910-05:33:33.721|76=ID8|150=2|151=0|10=199|
20250910-01:34:24.162662 : 8=FIX.4.2|9=329|35=8|34=2588|49=ID1|52=20250910-05:34:24.162|56=ID2|1=ID515|6=315.7|11=ID512|14=9|17=ID514|20=0|30=ID7|31=315.7|32=9|37=ID513|38=50|39=1|40=2|44=315.7|54=2|55=ORCL|59=0|60=20250910-05:34:24.162|76=ID8|150=1|151=41|10=176|
20250910-01:34:31.721712 : 8=FIX.4.2|9=330|35=8|34=2589|49=ID1|52=20250910-05:34:31.721|56=ID2|1=ID515|6=315.7|11=ID512|14=14|17=ID516|20=0|30=ID7|31=315.7|32=5|37=ID513|38=50|39=1|40=2|44=315.7|54=2|55=ORCL|59=0|60=20250910-05:34:31.721|76=ID8|150=1|151=36|10=221|
20250910-01:34:35.405000 : 8=FIX.4.2|9=333|35=8|34=2591|49=ID1|52=20250910-05:34:35.404|56=ID2|1=ID203|6=148.88|11=ID488|14=50|17=ID517|20=0|30=ID7|31=148.88|32=44|37=ID489|38=50|39=2|40=2|44=148.88|54=1|55=BABA|59=0|60=20250910-05:34:35.404|76=ID8|150=2|151=0|10=074|
20250910-01:34:35.906912 : 8=FIX.4.2|9=335|35=8|34=2592|49=ID1|52=20250910-05:34:35.906|56=ID2|1=ID515|6=315.6352|11=ID518|14=50|17=ID519|20=0|30=ID7|31=315.61|32=36|37=ID513|38=50|39=2|40=2|44=315.61|54=2|55=ORCL|59=0|60=20250910-05:34:35.906|76=ID8|150=2|151=0|10=219|
20250910-01:35:55.505988 : 8=FIX.4.2|9=333|35=8|34=2600|49=ID1|52=20250910-05:35:55.505|56=ID2|1=ID523|6=315.52|11=ID520|14=36|17=ID522|20=0|30=ID7|31=315.52|32=36|37=ID521|38=36|39=2|40=2|44=315.52|54=1|55=ORCL|59=0|60=20250910-05:35:55.505|76=ID8|150=2|151=0|10=137|
20250910-01:36:17.082139 : 8=FIX.4.2|9=337|35=8|34=2604|49=ID1|52=20250910-05:36:17.082|56=ID2|1=ID35|6=26.72|11=ID524|14=334|17=ID526|20=0|30=ID7|31=26.72|32=334|37=ID525|38=2990|39=1|40=2|44=26.72|54=2|55=SOLT|59=0|60=20250910-05:36:17.081|76=ID8|150=1|151=2656|10=133|
20250910-01:36:59.183588 : 8=FIX.4.2|9=328|35=8|34=2612|49=ID1|52=20250910-05:36:59.183|56=ID2|1=ID530|6=96.5|11=ID527|14=15|17=ID529|20=0|30=ID7|31=96.5|32=15|37=ID528|38=15|39=2|40=2|44=96.55|54=1|55=NBIS|59=0|60=20250910-05:36:59.183|76=ID8|150=2|151=0|10=197|
20250910-01:37:02.341092 : 8=FIX.4.2|9=340|35=8|34=2614|49=ID1|52=20250910-05:37:02.341|56=ID2|1=ID35|6=26.719543|11=ID531|14=350|17=ID532|20=0|30=ID7|31=26.71|32=16|37=ID525|38=2990|39=1|40=2|44=26.71|54=2|55=SOLT|59=0|60=20250910-05:37:02.340|76=ID8|150=1|151=2640|10=008|
20250910-01:37:54.882228 : 8=FIX.4.2|9=341|35=8|34=2621|49=ID1|52=20250910-05:37:54.882|56=ID2|1=ID35|6=26.716073|11=ID533|14=550|17=ID534|20=0|30=ID7|31=26.71|32=200|37=ID525|38=2990|39=1|40=2|44=26.71|54=2|55=SOLT|59=0|60=20250910-05:37:54.882|76=ID8|150=1|151=2440|10=070|
20250910-01:39:01.056108 : 8=FIX.4.2|9=331|35=8|34=2626|49=ID1|52=20250910-05:39:01.056|56=ID2|1=ID538|6=256.28|11=ID535|14=50|17=ID537|20=0|30=ID7|31=256.28|32=50|37=ID536|38=50|39=2|40=2|44=256.3|54=1|55=TSM|59=0|60=20250910-05:39:01.055|76=ID8|150=2|151=0|10=046|
20250910-01:39:26.690834 : 8=FIX.4.2|9=338|35=8|34=2630|49=ID1|52=20250910-05:39:26.690|56=ID2|1=ID35|6=26.715509|11=ID539|14=570|17=ID540|20=0|30=ID7|31=26.7|32=20|37=ID525|38=2990|39=1|40=2|44=26.7|54=2|55=SOLT|59=0|60=20250910-05:39:26.690|76=ID8|150=1|151=2420|10=208|
20250910-01:39:26.711715 : 8=FIX.4.2|9=338|35=8|34=2631|49=ID1|52=20250910-05:39:26.711|56=ID2|1=ID35|6=26.714983|11=ID539|14=590|17=ID541|20=0|30=ID7|31=26.7|32=20|37=ID525|38=2990|39=1|40=2|44=26.7|54=2|55=SOLT|59=0|60=20250910-05:39:26.711|76=ID8|150=1|151=2400|10=194|
20250910-01:39:26.712136 : 8=FIX.4.2|9=337|35=8|34=2632|49=ID1|52=20250910-05:39:26.712|56=ID2|1=ID35|6=26.714958|11=ID539|14=591|17=ID542|20=0|30=ID7|31=26.7|32=1|37=ID525|38=2990|39=1|40=2|44=26.7|54=2|55=SOLT|59=0|60=20250910-05:39:26.712|76=ID8|150=1|151=2399|10=167|
20250910-01:39:26.733499 : 8=FIX.4.2|9=338|35=8|34=2633|49=ID1|52=20250910-05:39:26.733|56=ID2|1=ID35|6=26.714468|11=ID539|14=611|17=ID543|20=0|30=ID7|31=26.7|32=20|37=ID525|38=2990|39=1|40=2|44=26.7|54=2|55=SOLT|59=0|60=20250910-05:39:26.733|76=ID8|150=1|151=2379|10=210|
20250910-01:39:26.733907 : 8=FIX.4.2|9=337|35=8|34=2634|49=ID1|52=20250910-05:39:26.733|56=ID2|1=ID35|6=26.714444|11=ID539|14=612|17=ID544|20=0|30=ID7|31=26.7|32=1|37=ID525|38=2990|39=1|40=2|44=26.7|54=2|55=SOLT|59=0|60=20250910-05:39:26.733|76=ID8|150=1|151=2378|10=155|
20250910-01:39:26.755600 : 8=FIX.4.2|9=338|35=8|34=2635|49=ID1|52=20250910-05:39:26.755|56=ID2|1=ID35|6=26.713987|11=ID539|14=632|17=ID545|20=0|30=ID7|31=26.7|32=20|37=ID525|38=2990|39=1|40=2|44=26.7|54=2|55=SOLT|59=0|60=20250910-05:39:26.755|76=ID8|150=1|151=2358|10=233|
20250910-01:39:26.756026 : 8=FIX.4.2|9=337|35=8|34=2636|49=ID1|52=20250910-05:39:26.756|56=ID2|1=ID35|6=26.713965|11=ID539|14=633|17=ID546|20=0|30=ID7|31=26.7|32=1|37=ID525|38=2990|39=1|40=2|44=26.7|54=2|55=SOLT|59=0|60=20250910-05:39:26.755|76=ID8|150=1|151=2357|10=181|
20250910-01:39:26.778099 : 8=FIX.4.2|9=338|35=8|34=2637|49=ID1|52=20250910-05:39:26.778|56=ID2|1=ID35|6=26.713538|11=ID539|14=653|17=ID547|20=0|30=ID7|31=26.7|32=20|37=ID525|38=2990|39=1|40=2|44=26.7|54=2|55=SOLT|59=0|60=20250910-05:39:26.777|76=ID8|150=1|151=2337|10=219|
20250910-01:39:26.778528 : 8=FIX.4.2|9=337|35=8|34=2638|49=ID1|52=20250910-05:39:26.778|56=ID2|1=ID35|6=26.713517|11=ID539|14=654|17=ID548|20=0|30=ID7|31=26.7|32=1|37=ID525|38=2990|39=1|40=2|44=26.7|54=2|55=SOLT|59=0|60=20250910-05:39:26.778|76=ID8|150=1|151=2336|10=177|
20250910-01:39:26.799468 : 8=FIX.4.2|9=338|35=8|34=2639|49=ID1|52=20250910-05:39:26.799|56=ID2|1=ID35|6=26.713116|11=ID539|14=674|17=ID549|20=0|30=ID7|31=26.7|32=20|37=ID525|38=2990|39=1|40=2|44=26.7|54=2|55=SOLT|59=0|60=20250910-05:39:26.799|76=ID8|150=1|151=2316|10=219|
20250910-01:39:26.799873 : 8=FIX.4.2|9=337|35=8|34=2640|49=ID1|52=20250910-05:39:26.799|56=ID2|1=ID35|6=26.713096|11=ID539|14=675|17=ID550|20=0|30=ID7|31=26.7|32=1|37=ID525|38=2990|39=1|40=2|44=26.7|54=2|55=SOLT|59=0|60=20250910-05:39:26.799|76=ID8|150=1|151=2315|10=168|
20250910-01:39:27.770419 : 8=FIX.4.2|9=339|35=8|34=2641|49=ID1|52=20250910-05:39:27.770|56=ID2|1=ID35|6=26.708956|11=ID539|14=987|17=ID551|20=0|30=ID7|31=26.7|32=312|37=ID525|38=2990|39=1|40=2|44=26.7|54=2|55=SOLT|59=0|60=20250910-05:39:27.770|76=ID8|150=1|151=2003|10=024|
20250910-01:39:27.791272 : 8=FIX.4.2|9=340|35=8|34=2642|49=ID1|52=20250910-05:39:27.791|56=ID2|1=ID35|6=26.706805|11=ID539|14=1299|17=ID552|20=0|30=ID7|31=26.7|32=312|37=ID525|38=2990|39=1|40=2|44=26.7|54=2|55=SOLT|59=0|60=20250910-05:39:27.791|76=ID8|150=1|151=1691|10=073|
20250910-01:39:27.791648 : 8=FIX.4.2|9=336|35=8|34=2643|49=ID1|52=20250910-05:39:27.791|56=ID2|1=ID35|6=26.7068|11=ID539|14=1300|17=ID553|20=0|30=ID7|31=26.7|32=1|37=ID525|38=2990|39=1|40=2|44=26.7|54=2|55=SOLT|59=0|60=20250910-05:39:27.791|76=ID8|150=1|151=1690|10=102|
20250910-01:39:27.814035 : 8=FIX.4.2|9=340|35=8|34=2644|49=ID1|52=20250910-05:39:27.814|56=ID2|1=ID35|6=26.704969|11=ID539|14=1779|17=ID554|20=0|30=ID7|31=26.7|32=479|37=ID525|38=2990|39=1|40=2|44=26.7|54=2|55=SOLT|59=0|60=20250910-05:39:27.813|76=ID8|150=1|151=1211|10=079|
20250910-01:39:27.814553 : 8=FIX.4.2|9=338|35=8|34=2645|49=ID1|52=20250910-05:39:27.814|56=ID2|1=ID35|6=26.704966|11=ID539|14=1780|17=ID555|20=0|30=ID7|31=26.7|32=1|37=ID525|38=2990|39=1|40=2|44=26.7|54=2|55=SOLT|59=0|60=20250910-05:39:27.814|76=ID8|150=1|151=1210|10=208|
20250910-01:39:27.836250 : 8=FIX.4.2|9=339|35=8|34=2646|49=ID1|52=20250910-05:39:27.836|56=ID2|1=ID35|6=26.703913|11=ID539|14=2259|17=ID556|20=0|30=ID7|31=26.7|32=479|37=ID525|38=2990|39=1|40=2|44=26.7|54=2|55=SOLT|59=0|60=20250910-05:39:27.836|76=ID8|150=1|151=731|10=022|
20250910-01:39:27.836790 : 8=FIX.4.2|9=337|35=8|34=2647|49=ID1|52=20250910-05:39:27.836|56=ID2|1=ID35|6=26.703912|11=ID539|14=2260|17=ID557|20=0|30=ID7|31=26.7|32=1|37=ID525|38=2990|39=1|40=2|44=26.7|54=2|55=SOLT|59=0|60=20250910-05:39:27.836|76=ID8|150=1|151=730|10=153|
20250910-01:39:27.953606 : 8=FIX.4.2|9=337|35=8|34=2648|49=ID1|52=20250910-05:39:27.953|56=ID2|1=ID35|6=26.702957|11=ID539|14=2990|17=ID558|20=0|30=ID7|31=26.7|32=730|37=ID525|38=2990|39=2|40=2|44=26.7|54=2|55=SOLT|59=0|60=20250910-05:39:27.953|76=ID8|150=2|151=0|10=186|
20250910-01:39:37.820810 : 8=FIX.4.2|9=327|35=8|34=2650|49=ID1|52=20250910-05:39:37.820|56=ID2|1=ID562|6=118.7|11=ID559|14=3|17=ID561|20=0|30=ID7|31=118.7|32=3|37=ID560|38=3|39=2|40=2|44=118.7|54=1|55=CRCL|59=0|60=20250910-05:39:37.820|76=ID8|150=2|151=0|10=137|
20250910-01:40:38.837989 : 8=FIX.4.2|9=329|35=8|34=2656|49=ID1|52=20250910-05:40:38.837|56=ID2|1=ID566|6=256.14|11=ID563|14=2|17=ID565|20=0|30=ID7|31=256.14|32=2|37=ID564|38=6|39=1|40=2|44=256.15|54=1|55=TSM|59=0|60=20250910-05:40:38.837|76=ID8|150=1|151=4|10=218|
20250910-01:40:54.543724 : 8=FIX.4.2|9=333|35=8|34=2657|49=ID1|52=20250910-05:40:54.543|56=ID2|1=ID566|6=256.146667|11=ID563|14=6|17=ID567|20=0|30=ID7|31=256.15|32=4|37=ID564|38=6|39=2|40=2|44=256.15|54=1|55=TSM|59=0|60=20250910-05:40:54.543|76=ID8|150=2|151=0|10=169|
20250910-01:42:37.803745 : 8=FIX.4.2|9=332|35=8|34=2664|49=ID1|52=20250910-05:42:37.803|56=ID2|1=ID571|6=256.15|11=ID568|14=20|17=ID570|20=0|30=ID7|31=256.15|32=20|37=ID569|38=20|39=2|40=2|44=256.15|54=1|55=TSM|59=0|60=20250910-05:42:37.803|76=ID8|150=2|151=0|10=070|
20250910-01:43:10.632718 : 8=FIX.4.2|9=330|35=8|34=2669|49=ID1|52=20250910-05:43:10.632|56=ID2|1=ID575|6=347.41|11=ID572|14=1|17=ID574|20=0|30=ID7|31=347.41|32=1|37=ID573|38=1|39=2|40=2|44=347.41|54=1|55=TSLA|59=0|60=20250910-05:43:10.632|76=ID8|150=2|151=0|10=207|
20250910-01:43:34.968769 : 8=FIX.4.2|9=333|35=8|34=2675|49=ID1|52=20250910-05:43:34.968|56=ID2|1=ID241|6=148.53|11=ID576|14=55|17=ID578|20=0|30=ID7|31=148.53|32=55|37=ID577|38=55|39=2|40=2|44=148.53|54=2|55=BABA|59=0|60=20250910-05:43:34.968|76=ID8|150=2|151=0|10=103|
20250910-01:43:47.021973 : 8=FIX.4.2|9=317|35=8|34=2677|49=ID1|52=20250910-05:43:47.021|56=ID2|1=ID582|6=81|11=ID579|14=3|17=ID581|20=0|30=ID7|31=81|32=3|37=ID580|38=3|39=2|40=2|44=81|54=2|55=TEM|59=0|60=20250910-05:43:47.021|76=ID8|150=2|151=0|10=055|
20250910-01:45:10.751263 : 8=FIX.4.2|9=326|35=8|34=2693|49=ID1|52=20250910-05:45:10.751|56=ID2|1=ID582|6=36.3|11=ID583|14=10|17=ID585|20=0|30=ID7|31=36.3|32=10|37=ID584|38=10|39=2|40=2|44=36.3|54=1|55=SMR|59=0|60=20250910-05:45:10.750|76=ID8|150=2|151=0|10=234|
20250910-01:45:21.932130 : 8=FIX.4.2|9=334|35=8|34=2697|49=ID1|52=20250910-05:45:21.932|56=ID2|1=ID203|6=148.55|11=ID586|14=40|17=ID588|20=0|30=ID7|31=148.55|32=40|37=ID587|38=50|39=1|40=2|44=148.55|54=1|55=BABA|59=0|60=20250910-05:45:21.931|76=ID8|150=1|151=10|10=118|
20250910-01:45:38.706172 : 8=FIX.4.2|9=333|35=8|34=2699|49=ID1|52=20250910-05:45:38.706|56=ID2|1=ID203|6=148.55|11=ID586|14=50|17=ID589|20=0|30=ID7|31=148.55|32=10|37=ID587|38=50|39=2|40=2|44=148.55|54=1|55=BABA|59=0|60=20250910-05:45:38.705|76=ID8|150=2|151=0|10=077|
20250910-01:45:45.770536 : 8=FIX.4.2|9=324|35=8|34=2701|49=ID1|52=20250910-05:45:45.770|56=ID2|1=ID593|6=174|11=ID590|14=40|17=ID592|20=0|30=ID7|31=174|32=40|37=ID591|38=40|39=2|40=2|44=174|54=1|55=NVDA|59=0|60=20250910-05:45:45.770|76=ID8|150=2|151=0|10=175|
20250910-01:47:23.390385 : 8=FIX.4.2|9=328|35=8|34=2710|49=ID1|52=20250910-05:47:23.390|56=ID2|1=ID597|6=34.13|11=ID594|14=10|17=ID596|20=0|30=ID7|31=34.13|32=10|37=ID595|38=10|39=2|40=2|44=34.13|54=2|55=JD|59=0|60=20250910-05:47:23.390|76=ID8|150=2|151=0|10=059|
20250910-01:47:37.694791 : 8=FIX.4.2|9=335|35=8|34=2713|49=ID1|52=20250910-05:47:37.694|56=ID2|1=ID601|6=347.57|11=ID598|14=53|17=ID600|20=0|30=ID7|31=347.57|32=53|37=ID599|38=100|39=1|40=2|44=347.57|54=2|55=TSLA|59=0|60=20250910-05:47:37.694|76=ID8|150=1|151=47|10=033|
20250910-01:47:41.051350 : 8=FIX.4.2|9=330|35=8|34=2714|49=ID1|52=20250910-05:47:41.051|56=ID2|1=ID241|6=148.8|11=ID602|14=50|17=ID604|20=0|30=ID7|31=148.8|32=50|37=ID603|38=50|39=2|40=2|44=148.8|54=2|55=BABA|59=0|60=20250910-05:47:41.051|76=ID8|150=2|151=0|10=180|
20250910-01:48:06.121820 : 8=FIX.4.2|9=335|35=8|34=2715|49=ID1|52=20250910-05:48:06.121|56=ID2|1=ID601|6=347.57|11=ID598|14=80|17=ID605|20=0|30=ID7|31=347.57|32=27|37=ID599|38=100|39=1|40=2|44=347.57|54=2|55=TSLA|59=0|60=20250910-05:48:06.121|76=ID8|150=1|151=20|10=237|
20250910-01:51:14.938963 : 8=FIX.4.2|9=331|35=8|34=2722|49=ID1|52=20250910-05:51:14.938|56=ID2|1=ID609|6=3.65|11=ID606|14=129|17=ID608|20=0|30=ID7|31=3.65|32=129|37=ID607|38=693|39=1|40=2|44=3.65|54=2|55=DUO|59=0|60=20250910-05:51:14.938|76=ID8|150=1|151=564|10=014|
20250910-01:51:45.065348 : 8=FIX.4.2|9=327|35=8|34=2724|49=ID1|52=20250910-05:51:45.065|56=ID2|1=ID613|6=174|11=ID610|14=140|17=ID612|20=0|30=ID7|31=174|32=140|37=ID611|38=140|39=2|40=2|44=174|54=2|55=NVDA|59=0|60=20250910-05:51:45.065|76=ID8|150=2|151=0|10=076|
20250910-01:52:46.350527 : 8=FIX.4.2|9=330|35=8|34=2734|49=ID1|52=20250910-05:52:46.350|56=ID2|1=ID609|6=3.65|11=ID606|14=159|17=ID614|20=0|30=ID7|31=3.65|32=30|37=ID607|38=693|39=1|40=2|44=3.65|54=2|55=DUO|59=0|60=20250910-05:52:46.350|76=ID8|150=1|151=534|10=213|
20250910-01:53:00.390695 : 8=FIX.4.2|9=336|35=8|34=2735|49=ID1|52=20250910-05:53:00.390|56=ID2|1=ID613|6=105.97|11=ID615|14=230|17=ID617|20=0|30=ID7|31=105.97|32=230|37=ID616|38=230|39=2|40=2|44=105.97|54=1|55=CRWV|59=0|60=20250910-05:53:00.390|76=ID8|150=2|151=0|10=055|
20250910-01:53:57.732298 : 8=FIX.4.2|9=334|35=8|34=2740|49=ID1|52=20250910-05:53:57.732|56=ID2|1=ID601|6=347.57|11=ID598|14=84|17=ID618|20=0|30=ID7|31=347.57|32=4|37=ID599|38=100|39=1|40=2|44=347.57|54=2|55=TSLA|59=0|60=20250910-05:53:57.732|76=ID8|150=1|151=16|10=205|
20250910-01:54:10.248357 : 8=FIX.4.2|9=326|35=8|34=2744|49=ID1|52=20250910-05:54:10.248|56=ID2|1=ID582|6=252.5|11=ID619|14=2|17=ID621|20=0|30=ID7|31=252.5|32=2|37=ID620|38=2|39=2|40=2|44=252.5|54=2|55=CLS|59=0|60=20250910-05:54:10.248|76=ID8|150=2|151=0|10=223|
20250910-01:54:19.651811 : 8=FIX.4.2|9=335|35=8|34=2746|49=ID1|52=20250910-05:54:19.651|56=ID2|1=ID35|6=26.59|11=ID622|14=20|17=ID624|20=0|30=ID7|31=26.59|32=20|37=ID623|38=1500|39=1|40=2|44=26.59|54=1|55=SOLT|59=0|60=20250910-05:54:19.651|76=ID8|150=1|151=1480|10=008|
20250910-01:54:19.672243 : 8=FIX.4.2|9=335|35=8|34=2747|49=ID1|52=20250910-05:54:19.672|56=ID2|1=ID35|6=26.59|11=ID622|14=40|17=ID625|20=0|30=ID7|31=26.59|32=20|37=ID623|38=1500|39=1|40=2|44=26.59|54=1|55=SOLT|59=0|60=20250910-05:54:19.672|76=ID8|150=1|151=1460|10=015|
20250910-01:54:19.672624 : 8=FIX.4.2|9=334|35=8|34=2748|49=ID1|52=20250910-05:54:19.672|56=ID2|1=ID35|6=26.59|11=ID622|14=41|17=ID626|20=0|30=ID7|31=26.59|32=1|37=ID623|38=1500|39=1|40=2|44=26.59|54=1|55=SOLT|59=0|60=20250910-05:54:19.672|76=ID8|150=1|151=1459|10=224|
20250910-01:54:19.695195 : 8=FIX.4.2|9=335|35=8|34=2749|49=ID1|52=20250910-05:54:19.695|56=ID2|1=ID35|6=26.59|11=ID622|14=61|17=ID627|20=0|30=ID7|31=26.59|32=20|37=ID623|38=1500|39=1|40=2|44=26.59|54=1|55=SOLT|59=0|60=20250910-05:54:19.695|76=ID8|150=1|151=1439|10=035|
20250910-01:54:19.716592 : 8=FIX.4.2|9=335|35=8|34=2750|49=ID1|52=20250910-05:54:19.716|56=ID2|1=ID35|6=26.59|11=ID622|14=81|17=ID628|20=0|30=ID7|31=26.59|32=20|37=ID623|38=1500|39=1|40=2|44=26.59|54=1|55=SOLT|59=0|60=20250910-05:54:19.716|76=ID8|150=1|151=1419|10=010|
20250910-01:54:19.737259 : 8=FIX.4.2|9=336|35=8|34=2751|49=ID1|52=20250910-05:54:19.737|56=ID2|1=ID35|6=26.59|11=ID622|14=101|17=ID629|20=0|30=ID7|31=26.59|32=20|37=ID623|38=1500|39=1|40=2|44=26.59|54=1|55=SOLT|59=0|60=20250910-05:54:19.737|76=ID8|150=1|151=1399|10=074|
20250910-01:54:19.758278 : 8=FIX.4.2|9=336|35=8|34=2752|49=ID1|52=20250910-05:54:19.758|56=ID2|1=ID35|6=26.59|11=ID622|14=121|17=ID630|20=0|30=ID7|31=26.59|32=20|37=ID623|38=1500|39=1|40=2|44=26.59|54=1|55=SOLT|59=0|60=20250910-05:54:19.758|76=ID8|150=1|151=1379|10=085|
20250910-01:54:19.779175 : 8=FIX.4.2|9=336|35=8|34=2753|49=ID1|52=20250910-05:54:19.779|56=ID2|1=ID35|6=26.59|11=ID622|14=141|17=ID631|20=0|30=ID7|31=26.59|32=20|37=ID623|38=1500|39=1|40=2|44=26.59|54=1|55=SOLT|59=0|60=20250910-05:54:19.779|76=ID8|150=1|151=1359|10=096|
20250910-01:54:19.800166 : 8=FIX.4.2|9=336|35=8|34=2754|49=ID1|52=20250910-05:54:19.800|56=ID2|1=ID35|6=26.59|11=ID622|14=161|17=ID632|20=0|30=ID7|31=26.59|32=20|37=ID623|38=1500|39=1|40=2|44=26.59|54=1|55=SOLT|59=0|60=20250910-05:54:19.800|76=ID8|150=1|151=1339|10=051|
20250910-01:54:19.821804 : 8=FIX.4.2|9=336|35=8|34=2755|49=ID1|52=20250910-05:54:19.821|56=ID2|1=ID35|6=26.59|11=ID622|14=181|17=ID633|20=0|30=ID7|31=26.59|32=20|37=ID623|38=1500|39=1|40=2|44=26.59|54=1|55=SOLT|59=0|60=20250910-05:54:19.821|76=ID8|150=1|151=1319|10=062|
20250910-01:54:19.968676 : 8=FIX.4.2|9=336|35=8|34=2756|49=ID1|52=20250910-05:54:19.968|56=ID2|1=ID35|6=26.59|11=ID622|14=201|17=ID634|20=0|30=ID7|31=26.59|32=20|37=ID623|38=1500|39=1|40=2|44=26.59|54=1|55=SOLT|59=0|60=20250910-05:54:19.968|76=ID8|150=1|151=1299|10=095|
20250910-01:54:20.028895 : 8=FIX.4.2|9=337|35=8|34=2758|49=ID1|52=20250910-05:54:20.028|56=ID2|1=ID35|6=26.59866|11=ID635|14=1500|17=ID636|20=0|30=ID7|31=26.6|32=1299|37=ID623|38=1500|39=2|40=2|44=26.6|54=1|55=SOLT|59=0|60=20250910-05:54:19.988|76=ID8|150=2|151=0|10=114|
20250910-01:54:39.972873 : 8=FIX.4.2|9=329|35=8|34=2761|49=ID1|52=20250910-05:54:39.972|56=ID2|1=ID609|6=3.65|11=ID606|14=693|17=ID637|20=0|30=ID7|31=3.65|32=534|37=ID607|38=693|39=2|40=2|44=3.65|54=2|55=DUO|59=0|60=20250910-05:54:39.972|76=ID8|150=2|151=0|10=200|
20250910-01:54:53.243388 : 8=FIX.4.2|9=330|35=8|34=2765|49=ID1|52=20250910-05:54:53.243|56=ID2|1=ID641|6=51.6|11=ID638|14=44|17=ID640|20=0|30=ID7|31=51.6|32=44|37=ID639|38=1000|39=1|40=2|44=51.6|54=1|55=NVO|59=0|60=20250910-05:54:53.243|76=ID8|150=1|151=956|10=210|
20250910-01:54:58.766690 : 8=FIX.4.2|9=332|35=8|34=2766|49=ID1|52=20250910-05:54:58.766|56=ID2|1=ID641|6=51.6|11=ID638|14=544|17=ID642|20=0|30=ID7|31=51.6|32=500|37=ID639|38=1000|39=1|40=2|44=51.6|54=1|55=NVO|59=0|60=20250910-05:54:58.766|76=ID8|150=1|151=456|10=084|
20250910-01:55:00.581541 : 8=FIX.4.2|9=334|35=8|34=2769|49=ID1|52=20250910-05:55:00.581|56=ID2|1=ID646|6=343.43|11=ID643|14=12|17=ID645|20=0|30=ID7|31=343.43|32=12|37=ID644|38=30|39=1|40=2|44=343.43|54=1|55=AVGO|59=0|60=20250910-05:55:00.581|76=ID8|150=1|151=18|10=165|
20250910-01:55:01.011687 : 8=FIX.4.2|9=333|35=8|34=2770|49=ID1|52=20250910-05:55:01.011|56=ID2|1=ID203|6=148.28|11=ID647|14=50|17=ID649|20=0|30=ID7|31=148.28|32=50|37=ID648|38=50|39=2|40=2|44=148.28|54=1|55=BABA|59=0|60=20250910-05:55:01.011|76=ID8|150=2|151=0|10=055|
20250910-01:55:25.840760 : 8=FIX.4.2|9=333|35=8|34=2772|49=ID1|52=20250910-05:55:25.840|56=ID2|1=ID646|6=343.43|11=ID643|14=13|17=ID650|20=0|30=ID7|31=343.43|32=1|37=ID644|38=30|39=1|40=2|44=343.43|54=1|55=AVGO|59=0|60=20250910-05:55:25.840|76=ID8|150=1|151=17|10=116|
20250910-01:55:57.016570 : 8=FIX.4.2|9=333|35=8|34=2775|49=ID1|52=20250910-05:55:57.016|56=ID2|1=ID646|6=343.43|11=ID643|14=30|17=ID651|20=0|30=ID7|31=343.43|32=17|37=ID644|38=30|39=2|40=2|44=343.43|54=1|55=AVGO|59=0|60=20250910-05:55:57.016|76=ID8|150=2|151=0|10=119|
20250910-01:55:57.578270 : 8=FIX.4.2|9=334|35=8|34=2776|49=ID1|52=20250910-05:55:57.578|56=ID2|1=ID641|6=51.6456|11=ID652|14=1000|17=ID653|20=0|30=ID7|31=51.7|32=456|37=ID639|38=1000|39=2|40=2|44=51.7|54=1|55=NVO|59=0|60=20250910-05:55:57.578|76=ID8|150=2|151=0|10=199|
20250910-01:56:32.038383 : 8=FIX.4.2|9=327|35=8|34=2779|49=ID1|52=20250910-05:56:32.038|56=ID2|1=ID582|6=34.15|11=ID654|14=7|17=ID656|20=0|30=ID7|31=34.15|32=7|37=ID655|38=7|39=2|40=2|44=34.15|54=2|55=CONL|59=0|60=20250910-05:56:32.038|76=ID8|150=2|151=0|10=093|
20250910-01:56:38.072634 : 8=FIX.4.2|9=328|35=8|34=2781|49=ID1|52=20250910-05:56:38.072|56=ID2|1=ID660|6=234.1|11=ID657|14=4|17=ID659|20=0|30=ID7|31=234.1|32=4|37=ID658|38=4|39=2|40=2|44=234.11|54=1|55=AAPL|59=0|60=20250910-05:56:38.072|76=ID8|150=2|151=0|10=102|
20250910-01:57:18.844125 : 8=FIX.4.2|9=330|35=8|34=2783|49=ID1|52=20250910-05:57:18.844|56=ID2|1=ID664|6=165.05|11=ID661|14=5|17=ID663|20=0|30=ID7|31=165.05|32=5|37=ID662|38=5|39=2|40=2|44=165.05|54=1|55=PLTR|59=0|60=20250910-05:57:18.843|76=ID8|150=2|151=0|10=001|
20250910-01:58:12.819292 : 8=FIX.4.2|9=334|35=8|34=2789|49=ID1|52=20250910-05:58:12.819|56=ID2|1=ID506|6=165.02|11=ID665|14=19|17=ID667|20=0|30=ID7|31=165.02|32=19|37=ID666|38=48|39=1|40=2|44=165.02|54=2|55=PLTR|59=0|60=20250910-05:58:12.819|76=ID8|150=1|151=29|10=218|
20250910-01:58:15.134072 : 8=FIX.4.2|9=329|35=8|34=2792|49=ID1|52=20250910-05:58:15.134|56=ID2|1=ID582|6=256.09|11=ID668|14=2|17=ID670|20=0|30=ID7|31=256.09|32=2|37=ID669|38=2|39=2|40=2|44=256.09|54=1|55=TSM|59=0|60=20250910-05:58:15.133|76=ID8|150=2|151=0|10=168|
20250910-01:58:37.359412 : 8=FIX.4.2|9=334|35=8|34=2795|49=ID1|52=20250910-05:58:37.359|56=ID2|1=ID506|6=165.02|11=ID665|14=32|17=ID671|20=0|30=ID7|31=165.02|32=13|37=ID666|38=48|39=1|40=2|44=165.02|54=2|55=PLTR|59=0|60=20250910-05:58:37.359|76=ID8|150=1|151=16|10=217|
20250910-01:59:00.412430 : 8=FIX.4.2|9=333|35=8|34=2798|49=ID1|52=20250910-05:59:00.412|56=ID2|1=ID506|6=165.02|11=ID665|14=48|17=ID672|20=0|30=ID7|31=165.02|32=16|37=ID666|38=48|39=2|40=2|44=165.02|54=2|55=PLTR|59=0|60=20250910-05:59:00.412|76=ID8|150=2|151=0|10=127|
20250910-01:59:08.871297 : 8=FIX.4.2|9=333|35=8|34=2802|49=ID1|52=20250910-05:59:08.871|56=ID2|1=ID313|6=100.48|11=ID673|14=58|17=ID675|20=0|30=ID7|31=100.48|32=58|37=ID674|38=58|39=2|40=2|44=100.48|54=2|55=SGOV|59=0|60=20250910-05:59:08.871|76=ID8|150=2|151=0|10=174|
20250910-01:59:45.178362 : 8=FIX.4.2|9=327|35=8|34=2804|49=ID1|52=20250910-05:59:45.178|56=ID2|1=ID679|6=39.8|11=ID676|14=50|17=ID678|20=0|30=ID7|31=39.8|32=50|37=ID677|38=50|39=2|40=2|44=39.8|54=2|55=BABX|59=0|60=20250910-05:59:45.178|76=ID8|150=2|151=0|10=109|
20250910-01:59:56.803427 : 8=FIX.4.2|9=330|35=8|34=2806|49=ID1|52=20250910-05:59:56.803|56=ID2|1=ID683|6=189.8|11=ID680|14=16|17=ID682|20=0|30=ID7|31=189.8|32=16|37=ID681|38=16|39=2|40=2|44=189.8|54=1|55=FUTU|59=0|60=20250910-05:59:56.803|76=ID8|150=2|151=0|10=036|
20250910-02:00:28.342082 : 8=FIX.4.2|9=338|35=8|34=2809|49=ID1|52=20250910-06:00:28.342|56=ID2|1=ID687|6=173.95|11=ID684|14=156|17=ID686|20=0|30=ID7|31=173.95|32=156|37=ID685|38=523|39=1|40=2|44=173.95|54=1|55=NVDA|59=0|60=20250910-06:00:28.341|76=ID8|150=1|151=367|10=158|
20250910-02:00:28.720545 : 8=FIX.4.2|9=338|35=8|34=2810|49=ID1|52=20250910-06:00:28.720|56=ID2|1=ID687|6=173.95|11=ID684|14=312|17=ID688|20=0|30=ID7|31=173.95|32=156|37=ID685|38=523|39=1|40=2|44=173.95|54=1|55=NVDA|59=0|60=20250910-06:00:28.720|76=ID8|150=1|151=211|10=149|
20250910-02:00:39.509667 : 8=FIX.4.2|9=337|35=8|34=2811|49=ID1|52=20250910-06:00:39.509|56=ID2|1=ID687|6=173.95|11=ID684|14=473|17=ID689|20=0|30=ID7|31=173.95|32=161|37=ID685|38=523|39=1|40=2|44=173.95|54=1|55=NVDA|59=0|60=20250910-06:00:39.509|76=ID8|150=1|151=50|10=099|
20250910-02:01:53.005132 : 8=FIX.4.2|9=336|35=8|34=2818|49=ID1|52=20250910-06:01:53.005|56=ID2|1=ID687|6=173.95|11=ID684|14=503|17=ID690|20=0|30=ID7|31=173.95|32=30|37=ID685|38=523|39=1|40=2|44=173.95|54=1|55=NVDA|59=0|60=20250910-06:01:53.004|76=ID8|150=1|151=20|10=026|
20250910-02:02:02.708454 : 8=FIX.4.2|9=333|35=8|34=2820|49=ID1|52=20250910-06:02:02.708|56=ID2|1=ID506|6=316.83|11=ID691|14=20|17=ID693|20=0|30=ID7|31=316.83|32=20|37=ID692|38=20|39=2|40=2|44=316.83|54=2|55=ORCL|59=0|60=20250910-06:02:02.708|76=ID8|150=2|151=0|10=128|
20250910-02:02:03.434517 : 8=FIX.4.2|9=335|35=8|34=2821|49=ID1|52=20250910-06:02:03.434|56=ID2|1=ID687|6=173.95|11=ID684|14=523|17=ID694|20=0|30=ID7|31=173.95|32=20|37=ID685|38=523|39=2|40=2|44=173.95|54=1|55=NVDA|59=0|60=20250910-06:02:03.434|76=ID8|150=2|151=0|10=221|
20250910-02:02:08.046303 : 8=FIX.4.2|9=329|35=8|34=2822|49=ID1|52=20250910-06:02:08.046|56=ID2|1=ID538|6=256.5|11=ID695|14=50|17=ID697|20=0|30=ID7|31=256.5|32=50|37=ID696|38=50|39=2|40=2|44=256.5|54=2|55=TSM|59=0|60=20250910-06:02:08.046|76=ID8|150=2|151=0|10=169|
20250910-02:03:03.966564 : 8=FIX.4.2|9=330|35=8|34=2825|49=ID1|52=20250910-06:03:03.966|56=ID2|1=ID664|6=165.04|11=ID698|14=5|17=ID700|20=0|30=ID7|31=165.04|32=5|37=ID699|38=5|39=2|40=2|44=165.03|54=2|55=PLTR|59=0|60=20250910-06:03:03.966|76=ID8|150=2|151=0|10=000|
20250910-02:04:49.249276 : 8=FIX.4.2|9=332|35=8|34=2833|49=ID1|52=20250910-06:04:49.249|56=ID2|1=ID641|6=51.91|11=ID701|14=500|17=ID703|20=0|30=ID7|31=51.91|32=500|37=ID702|38=500|39=2|40=2|44=51.91|54=1|55=NVO|59=0|60=20250910-06:04:49.249|76=ID8|150=2|151=0|10=059|
20250910-02:06:46.786408 : 8=FIX.4.2|9=329|35=8|34=2840|49=ID1|52=20250910-06:06:46.786|56=ID2|1=ID707|6=3.66|11=ID704|14=417|17=ID706|20=0|30=ID7|31=3.66|32=417|37=ID705|38=417|39=2|40=2|44=3.66|54=1|55=DUO|59=0|60=20250910-06:06:46.786|76=ID8|150=2|151=0|10=243|
20250910-02:06:58.445828 : 8=FIX.4.2|9=336|35=8|34=2843|49=ID1|52=20250910-06:06:58.445|56=ID2|1=ID613|6=105.68|11=ID708|14=230|17=ID710|20=0|30=ID7|31=105.68|32=230|37=ID709|38=230|39=2|40=2|44=105.68|54=2|55=CRWV|59=0|60=20250910-06:06:58.445|76=ID8|150=2|151=0|10=049|
20250910-02:08:22.312245 : 8=FIX.4.2|9=330|35=8|34=2847|49=ID1|52=20250910-06:08:22.312|56=ID2|1=ID609|6=1.79|11=ID711|14=388|17=ID713|20=0|30=ID7|31=1.79|32=388|37=ID712|38=388|39=2|40=2|44=1.79|54=2|55=WOLF|59=0|60=20250910-06:08:22.311|76=ID8|150=2|151=0|10=226|
20250910-02:09:21.366682 : 8=FIX.4.2|9=336|35=8|34=2851|49=ID1|52=20250910-06:09:21.366|56=ID2|1=ID613|6=173.92|11=ID714|14=140|17=ID716|20=0|30=ID7|31=173.92|32=140|37=ID715|38=140|39=2|40=2|44=173.92|54=1|55=NVDA|59=0|60=20250910-06:09:21.366|76=ID8|150=2|151=0|10=018|
20250910-02:09:36.545670 : 8=FIX.4.2|9=331|35=8|34=2853|49=ID1|52=20250910-06:09:36.545|56=ID2|1=ID368|6=1.7|11=ID717|14=225|17=ID719|20=0|30=ID7|31=1.7|32=225|37=ID718|38=4632|39=1|40=2|44=1.7|54=1|55=FFAI|59=0|60=20250910-06:09:36.545|76=ID8|150=1|151=4407|10=015|
20250910-02:11:18.963763 : 8=FIX.4.2|9=333|35=8|34=2858|49=ID1|52=20250910-06:11:18.963|56=ID2|1=ID723|6=51.6|11=ID720|14=340|17=ID722|20=0|30=ID7|31=51.6|32=340|37=ID721|38=2000|39=1|40=2|44=51.6|54=2|55=NVO|59=0|60=20250910-06:11:18.963|76=ID8|150=1|151=1660|10=126|
20250910-02:11:21.072937 : 8=FIX.4.2|9=333|35=8|34=2859|49=ID1|52=20250910-06:11:21.072|56=ID2|1=ID723|6=51.6|11=ID720|14=440|17=ID724|20=0|30=ID7|31=51.6|32=100|37=ID721|38=2000|39=1|40=2|44=51.6|54=2|55=NVO|59=0|60=20250910-06:11:21.072|76=ID8|150=1|151=1560|10=074|
20250910-02:11:24.399406 : 8=FIX.4.2|9=332|35=8|34=2860|49=ID1|52=20250910-06:11:24.399|56=ID2|1=ID723|6=51.6|11=ID720|14=529|17=ID725|20=0|30=ID7|31=51.6|32=89|37=ID721|38=2000|39=1|40=2|44=51.6|54=2|55=NVO|59=0|60=20250910-06:11:24.399|76=ID8|150=1|151=1471|10=074|
20250910-02:11:31.174630 : 8=FIX.4.2|9=333|35=8|34=2861|49=ID1|52=20250910-06:11:31.174|56=ID2|1=ID723|6=51.6|11=ID720|14=1029|17=ID726|20=0|30=ID7|31=51.6|32=500|37=ID721|38=2000|39=1|40=2|44=51.6|54=2|55=NVO|59=0|60=20250910-06:11:31.174|76=ID8|150=1|151=971|10=089|
20250910-02:11:32.951343 : 8=FIX.4.2|9=333|35=8|34=2862|49=ID1|52=20250910-06:11:32.951|56=ID2|1=ID723|6=51.6|11=ID720|14=1229|17=ID727|20=0|30=ID7|31=51.6|32=200|37=ID721|38=2000|39=1|40=2|44=51.6|54=2|55=NVO|59=0|60=20250910-06:11:32.951|76=ID8|150=1|151=771|10=092|
20250910-02:11:34.255115 : 8=FIX.4.2|9=333|35=8|34=2863|49=ID1|52=20250910-06:11:34.255|56=ID2|1=ID723|6=51.6|11=ID720|14=1729|17=ID728|20=0|30=ID7|31=51.6|32=500|37=ID721|38=2000|39=1|40=2|44=51.6|54=2|55=NVO|59=0|60=20250910-06:11:34.254|76=ID8|150=1|151=271|10=092|
20250910-02:11:36.679643 : 8=FIX.4.2|9=331|35=8|34=2864|49=ID1|52=20250910-06:11:36.679|56=ID2|1=ID723|6=51.6|11=ID720|14=1730|17=ID729|20=0|30=ID7|31=51.6|32=1|37=ID721|38=2000|39=1|40=2|44=51.6|54=2|55=NVO|59=0|60=20250910-06:11:36.679|76=ID8|150=1|151=270|10=003|
20250910-02:11:37.811282 : 8=FIX.4.2|9=333|35=8|34=2865|49=ID1|52=20250910-06:11:37.811|56=ID2|1=ID723|6=51.6|11=ID720|14=1830|17=ID730|20=0|30=ID7|31=51.6|32=100|37=ID721|38=2000|39=1|40=2|44=51.6|54=2|55=NVO|59=0|60=20250910-06:11:37.811|76=ID8|150=1|151=170|10=105|
20250910-02:12:11.714870 : 8=FIX.4.2|9=333|35=8|34=2870|49=ID1|52=20250910-06:12:11.714|56=ID2|1=ID322|6=121.55|11=ID731|14=25|17=ID733|20=0|30=ID7|31=121.55|32=25|37=ID732|38=25|39=2|40=2|44=121.55|54=2|55=HOOD|59=0|60=20250910-06:12:11.714|76=ID8|150=2|151=0|10=108|
20250910-02:12:20.076374 : 8=FIX.4.2|9=333|35=8|34=2872|49=ID1|52=20250910-06:12:20.076|56=ID2|1=ID737|6=173.7|11=ID734|14=500|17=ID736|20=0|30=ID7|31=173.7|32=500|37=ID735|38=500|39=2|40=2|44=173.7|54=1|55=NVDA|59=0|60=20250910-06:12:20.076|76=ID8|150=2|151=0|10=115|
20250910-02:13:42.849588 : 8=FIX.4.2|9=326|35=8|34=2881|49=ID1|52=20250910-06:13:42.849|56=ID2|1=ID609|6=1.8|11=ID738|14=11|17=ID740|20=0|30=ID7|31=1.8|32=1|37=ID739|38=500|39=1|40=2|44=1.8|54=2|55=WOLF|59=0|60=20250910-06:13:42.849|76=ID8|150=1|151=489|10=053|
20250910-02:14:07.082335 : 8=FIX.4.2|9=334|35=8|34=2885|49=ID1|52=20250910-06:14:07.082|56=ID2|1=ID363|6=51.49|11=ID741|14=100|17=ID743|20=0|30=ID7|31=51.49|32=100|37=ID742|38=279|39=1|40=2|44=51.49|54=2|55=NVO|59=0|60=20250910-06:14:07.082|76=ID8|150=1|151=179|10=214|
20250910-02:14:08.008787 : 8=FIX.4.2|9=333|35=8|34=2886|49=ID1|52=20250910-06:14:08.008|56=ID2|1=ID363|6=51.49|11=ID741|14=130|17=ID744|20=0|30=ID7|31=51.49|32=30|37=ID742|38=279|39=1|40=2|44=51.49|54=2|55=NVO|59=0|60=20250910-06:14:08.008|76=ID8|150=1|151=149|10=150|
20250910-02:14:53.318489 : 8=FIX.4.2|9=335|35=8|34=2890|49=ID1|52=20250910-06:14:53.318|56=ID2|1=ID601|6=347.57|11=ID598|14=100|17=ID745|20=0|30=ID7|31=347.57|32=16|37=ID599|38=100|39=2|40=2|44=347.57|54=2|55=TSLA|59=0|60=20250910-06:14:53.318|76=ID8|150=2|151=0|10=246|
20250910-02:15:01.969897 : 8=FIX.4.2|9=327|35=8|34=2893|49=ID1|52=20250910-06:15:01.969|56=ID2|1=ID749|6=315.16|11=ID746|14=2|17=ID748|20=0|30=ID7|31=315.16|32=2|37=ID747|38=2|39=2|40=2|44=315|54=2|55=ORCL|59=0|60=20250910-06:15:01.969|76=ID8|150=2|151=0|10=066|
20250910-02:15:28.134714 : 8=FIX.4.2|9=332|35=8|34=2905|49=ID1|52=20250910-06:15:28.134|56=ID2|1=ID753|6=51.49|11=ID750|14=100|17=ID752|20=0|30=ID7|31=51.49|32=100|37=ID751|38=100|39=2|40=2|44=51.55|54=1|55=NVO|59=0|60=20250910-06:15:28.134|76=ID8|150=2|151=0|10=074|
20250910-02:15:28.134798 : 8=FIX.4.2|9=333|35=8|34=2906|49=ID1|52=20250910-06:15:28.134|56=ID2|1=ID363|6=51.49|11=ID754|14=100|17=ID756|20=0|30=ID7|31=51.49|32=100|37=ID755|38=149|39=1|40=2|44=51.49|54=2|55=NVO|59=0|60=20250910-06:15:28.134|76=ID8|150=1|151=49|10=160|
20250910-02:15:30.345385 : 8=FIX.4.2|9=326|35=8|34=2907|49=ID1|52=20250910-06:15:30.345|56=ID2|1=ID760|6=256.6|11=ID757|14=1|17=ID759|20=0|30=ID7|31=256.6|32=1|37=ID758|38=4|39=1|40=2|44=256.6|54=1|55=TSM|59=0|60=20250910-06:15:30.345|76=ID8|150=1|151=3|10=033|
20250910-02:15:35.736282 : 8=FIX.4.2|9=326|35=8|34=2909|49=ID1|52=20250910-06:15:35.736|56=ID2|1=ID760|6=256.6|11=ID757|14=4|17=ID761|20=0|30=ID7|31=256.6|32=3|37=ID758|38=4|39=2|40=2|44=256.6|54=1|55=TSM|59=0|60=20250910-06:15:35.736|76=ID8|150=2|151=0|10=053|
20250910-02:16:02.356101 : 8=FIX.4.2|9=336|35=8|34=2914|49=ID1|52=20250910-06:16:02.356|56=ID2|1=ID765|6=24.48|11=ID762|14=142|17=ID764|20=0|30=ID7|31=24.48|32=142|37=ID763|38=1000|39=1|40=2|44=24.48|54=1|55=INTC|59=0|60=20250910-06:16:02.355|76=ID8|150=1|151=858|10=051|
20250910-02:16:02.356185 : 8=FIX.4.2|9=336|35=8|34=2915|49=ID1|52=20250910-06:16:02.356|56=ID2|1=ID765|6=24.48|11=ID762|14=243|17=ID766|20=0|30=ID7|31=24.48|32=101|37=ID763|38=1000|39=1|40=2|44=24.48|54=1|55=INTC|59=0|60=20250910-06:16:02.355|76=ID8|150=1|151=757|10=040|
20250910-02:16:02.356259 : 8=FIX.4.2|9=335|35=8|34=2916|49=ID1|52=20250910-06:16:02.356|56=ID2|1=ID765|6=24.48|11=ID762|14=283|17=ID767|20=0|30=ID7|31=24.48|32=40|37=ID763|38=1000|39=1|40=2|44=24.48|54=1|55=INTC|59=0|60=20250910-06:16:02.355|76=ID8|150=1|151=717|10=252|
20250910-02:16:19.566124 : 8=FIX.4.2|9=336|35=8|34=2921|49=ID1|52=20250910-06:16:19.566|56=ID2|1=ID363|6=51.482735|11=ID768|14=117|17=ID769|20=0|30=ID7|31=51.44|32=17|37=ID755|38=149|39=1|40=2|44=51.44|54=2|55=NVO|59=0|60=20250910-06:16:19.566|76=ID8|150=1|151=32|10=093|
20250910-02:16:43.339620 : 8=FIX.4.2|9=331|35=8|34=2927|49=ID1|52=20250910-06:16:43.339|56=ID2|1=ID723|6=43.8|11=ID770|14=74|17=ID772|20=0|30=ID7|31=43.8|32=74|37=ID771|38=1000|39=1|40=2|44=43.8|54=1|55=SMCI|59=0|60=20250910-06:16:43.339|76=ID8|150=1|151=926|10=034|
20250910-02:16:43.339703 : 8=FIX.4.2|9=332|35=8|34=2928|49=ID1|52=20250910-06:16:43.339|56=ID2|1=ID723|6=43.8|11=ID770|14=137|17=ID773|20=0|30=ID7|31=43.8|32=63|37=ID771|38=1000|39=1|40=2|44=43.8|54=1|55=SMCI|59=0|60=20250910-06:16:43.339|76=ID8|150=1|151=863|10=084|
20250910-02:16:43.339779 : 8=FIX.4.2|9=332|35=8|34=2929|49=ID1|52=20250910-06:16:43.339|56=ID2|1=ID723|6=43.8|11=ID770|14=187|17=ID774|20=0|30=ID7|31=43.8|32=50|37=ID771|38=1000|39=1|40=2|44=43.8|54=1|55=SMCI|59=0|60=20250910-06:16:43.339|76=ID8|150=1|151=813|10=083|
20250910-02:16:59.528141 : 8=FIX.4.2|9=327|35=8|34=2930|49=ID1|52=20250910-06:16:59.528|56=ID2|1=ID609|6=1.8|11=ID738|14=55|17=ID775|20=0|30=ID7|31=1.8|32=44|37=ID739|38=500|39=1|40=2|44=1.8|54=2|55=WOLF|59=0|60=20250910-06:16:59.527|76=ID8|150=1|151=445|10=114|
20250910-02:17:00.226323 : 8=FIX.4.2|9=340|35=8|34=2932|49=ID1|52=20250910-06:17:00.226|56=ID2|1=ID723|6=43.805978|11=ID776|14=465|17=ID777|20=0|30=ID7|31=43.81|32=278|37=ID771|38=1000|39=1|40=2|44=43.81|54=1|55=SMCI|59=0|60=20250910-06:17:00.226|76=ID8|150=1|151=535|10=234|
20250910-02:17:28.223322 : 8=FIX.4.2|9=338|35=8|34=2935|49=ID1|52=20250910-06:17:28.223|56=ID2|1=ID723|6=43.805987|11=ID776|14=466|17=ID778|20=0|30=ID7|31=43.81|32=1|37=ID771|38=1000|39=1|40=2|44=43.81|54=1|55=SMCI|59=0|60=20250910-06:17:28.223|76=ID8|150=1|151=534|10=154|
20250910-02:17:32.461452 : 8=FIX.4.2|9=331|35=8|34=2937|49=ID1|52=20250910-06:17:32.461|56=ID2|1=ID782|6=24.12|11=ID779|14=8|17=ID781|20=0|30=ID7|31=24.12|32=8|37=ID780|38=300|39=1|40=2|44=24.12|54=2|55=AAOI|59=0|60=20250910-06:17:32.461|76=ID8|150=1|151=292|10=020|
20250910-02:17:35.548983 : 8=FIX.4.2|9=327|35=8|34=2939|49=ID1|52=20250910-06:17:35.548|56=ID2|1=ID609|6=1.8|11=ID738|14=500|17=ID783|20=0|30=ID7|31=1.8|32=445|37=ID739|38=500|39=2|40=2|44=1.8|54=2|55=WOLF|59=0|60=20250910-06:17:35.548|76=ID8|150=2|151=0|10=109|
20250910-02:17:42.128917 : 8=FIX.4.2|9=337|35=8|34=2943|49=ID1|52=20250910-06:17:42.128|56=ID2|1=ID765|6=24.49164|11=ID784|14=677|17=ID785|20=0|30=ID7|31=24.5|32=394|37=ID763|38=1000|39=1|40=2|44=24.5|54=1|55=INTC|59=0|60=20250910-06:17:42.128|76=ID8|150=1|151=323|10=124|
20250910-02:17:42.129015 : 8=FIX.4.2|9=336|35=8|34=2944|49=ID1|52=20250910-06:17:42.129|56=ID2|1=ID765|6=24.491689|11=ID784|14=681|17=ID786|20=0|30=ID7|31=24.5|32=4|37=ID763|38=1000|39=1|40=2|44=24.5|54=1|55=INTC|59=0|60=20250910-06:17:42.128|76=ID8|150=1|151=319|10=080|
20250910-02:17:42.129086 : 8=FIX.4.2|9=336|35=8|34=2945|49=ID1|52=20250910-06:17:42.129|56=ID2|1=ID765|6=24.49434|11=ID784|14=1000|17=ID787|20=0|30=ID7|31=24.5|32=319|37=ID763|38=1000|39=2|40=2|44=24.5|54=1|55=INTC|59=0|60=20250910-06:17:42.128|76=ID8|150=2|151=0|10=054|
20250910-02:17:48.883979 : 8=FIX.4.2|9=340|35=8|34=2948|49=ID1|52=20250910-06:17:48.883|56=ID2|1=ID723|6=43.807388|11=ID776|14=716|17=ID788|20=0|30=ID7|31=43.81|32=250|37=ID771|38=1000|39=1|40=2|44=43.81|54=1|55=SMCI|59=0|60=20250910-06:17:48.883|76=ID8|150=1|151=284|10=008|
20250910-02:17:49.468198 : 8=FIX.4.2|9=339|35=8|34=2949|49=ID1|52=20250910-06:17:49.468|56=ID2|1=ID723|6=43.808064|11=ID776|14=966|17=ID789|20=0|30=ID7|31=43.81|32=250|37=ID771|38=1000|39=1|40=2|44=43.81|54=1|55=SMCI|59=0|60=20250910-06:17:49.468|76=ID8|150=1|151=34|10=224|
20250910-02:17:53.983075 : 8=FIX.4.2|9=337|35=8|34=2952|49=ID1|52=20250910-06:17:53.983|56=ID2|1=ID723|6=43.80813|11=ID776|14=1000|17=ID790|20=0|30=ID7|31=43.81|32=34|37=ID771|38=1000|39=2|40=2|44=43.81|54=1|55=SMCI|59=0|60=20250910-06:17:53.982|76=ID8|150=2|151=0|10=070|
20250910-02:18:05.318935 : 8=FIX.4.2|9=330|35=8|34=2955|49=ID1|52=20250910-06:18:05.318|56=ID2|1=ID363|6=51.35|11=ID791|14=12|17=ID793|20=0|30=ID7|31=51.35|32=12|37=ID792|38=32|39=1|40=2|44=51.35|54=2|55=NVO|59=0|60=20250910-06:18:05.318|76=ID8|150=1|151=20|10=007|
20250910-02:18:05.319018 : 8=FIX.4.2|9=329|35=8|34=2956|49=ID1|52=20250910-06:18:05.319|56=ID2|1=ID363|6=51.35|11=ID791|14=32|17=ID794|20=0|30=ID7|31=51.35|32=20|37=ID792|38=32|39=2|40=2|44=51.35|54=2|55=NVO|59=0|60=20250910-06:18:05.318|76=ID8|150=2|151=0|10=228|
20250910-02:18:08.182149 : 8=FIX.4.2|9=337|35=8|34=2958|49=ID1|52=20250910-06:18:08.182|56=ID2|1=ID723|6=51.57875|11=ID795|14=2000|17=ID796|20=0|30=ID7|31=51.35|32=170|37=ID721|38=2000|39=2|40=2|44=51.35|54=2|55=NVO|59=0|60=20250910-06:18:08.181|76=ID8|150=2|151=0|10=085|
20250910-02:18:58.050549 : 8=FIX.4.2|9=334|35=8|34=2966|49=ID1|52=20250910-06:18:58.050|56=ID2|1=ID363|6=173.76|11=ID797|14=30|17=ID799|20=0|30=ID7|31=173.76|32=30|37=ID798|38=100|39=1|40=2|44=173.8|54=1|55=NVDA|59=0|60=20250910-06:18:58.050|76=ID8|150=1|151=70|10=207|
20250910-02:18:58.050643 : 8=FIX.4.2|9=337|35=8|34=2967|49=ID1|52=20250910-06:18:58.050|56=ID2|1=ID363|6=173.760625|11=ID797|14=32|17=ID800|20=0|30=ID7|31=173.77|32=2|37=ID798|38=100|39=1|40=2|44=173.8|54=1|55=NVDA|59=0|60=20250910-06:18:58.050|76=ID8|150=1|151=68|10=114|
20250910-02:18:58.050719 : 8=FIX.4.2|9=338|35=8|34=2968|49=ID1|52=20250910-06:18:58.050|56=ID2|1=ID363|6=173.765238|11=ID797|14=42|17=ID801|20=0|30=ID7|31=173.78|32=10|37=ID798|38=100|39=1|40=2|44=173.8|54=1|55=NVDA|59=0|60=20250910-06:18:58.050|76=ID8|150=1|151=58|10=171|
20250910-02:18:58.050788 : 8=FIX.4.2|9=335|35=8|34=2969|49=ID1|52=20250910-06:18:58.050|56=ID2|1=ID363|6=173.7692|11=ID797|14=50|17=ID802|20=0|30=ID7|31=173.79|32=8|37=ID798|38=100|39=1|40=2|44=173.8|54=1|55=NVDA|59=0|60=20250910-06:18:58.050|76=ID8|150=1|151=50|10=019|
20250910-02:18:58.050867 : 8=FIX.4.2|9=336|35=8|34=2970|49=ID1|52=20250910-06:18:58.050|56=ID2|1=ID363|6=173.7796|11=ID797|14=100|17=ID803|20=0|30=ID7|31=173.79|32=50|37=ID798|38=100|39=2|40=2|44=173.8|54=1|55=NVDA|59=0|60=20250910-06:18:58.050|76=ID8|150=2|151=0|10=057|
20250910-02:19:08.283816 : 8=FIX.4.2|9=335|35=8|34=2973|49=ID1|52=20250910-06:19:08.283|56=ID2|1=ID723|6=257.08|11=ID804|14=10|17=ID806|20=0|30=ID7|31=257.08|32=10|37=ID805|38=231|39=1|40=2|44=257.09|54=1|55=TSM|59=0|60=20250910-06:19:08.283|76=ID8|150=1|151=221|10=012|
20250910-02:19:08.283914 : 8=FIX.4.2|9=339|35=8|34=2974|49=ID1|52=20250910-06:19:08.283|56=ID2|1=ID723|6=257.086429|11=ID804|14=28|17=ID807|20=0|30=ID7|31=257.09|32=18|37=ID805|38=231|39=1|40=2|44=257.09|54=1|55=TSM|59=0|60=20250910-06:19:08.283|76=ID8|150=1|151=203|10=241|
20250910-02:19:33.415408 : 8=FIX.4.2|9=336|35=8|34=2990|49=ID1|52=20250910-06:19:33.415|56=ID2|1=ID35|6=26.78|11=ID808|14=1500|17=ID810|20=0|30=ID7|31=26.78|32=1500|37=ID809|38=1500|39=2|40=2|44=26.78|54=2|55=SOLT|59=0|60=20250910-06:19:33.415|76=ID8|150=2|151=0|10=069|
20250910-02:19:37.862402 : 8=FIX.4.2|9=331|35=8|34=2991|49=ID1|52=20250910-06:19:37.862|56=ID2|1=ID214|6=347.6|11=ID811|14=5|17=ID813|20=0|30=ID7|31=347.6|32=5|37=ID812|38=917|39=1|40=2|44=347.6|54=2|55=TSLA|59=0|60=20250910-06:19:37.862|76=ID8|150=1|151=912|10=114|
20250910-02:19:41.191414 : 8=FIX.4.2|9=333|35=8|34=2993|49=ID1|52=20250910-06:19:41.191|56=ID2|1=ID782|6=24.12|11=ID779|14=300|17=ID814|20=0|30=ID7|31=24.12|32=292|37=ID780|38=300|39=2|40=2|44=24.12|54=2|55=AAOI|59=0|60=20250910-06:19:41.191|76=ID8|150=2|151=0|10=115|
20250910-02:19:50.974918 : 8=FIX.4.2|9=339|35=8|34=2994|49=ID1|52=20250910-06:19:50.974|56=ID2|1=ID723|6=257.089567|11=ID804|14=231|17=ID815|20=0|30=ID7|31=257.09|32=203|37=ID805|38=231|39=2|40=2|44=257.09|54=1|55=TSM|59=0|60=20250910-06:19:50.974|76=ID8|150=2|151=0|10=248|
20250910-02:20:11.702886 : 8=FIX.4.2|9=335|35=8|34=2996|49=ID1|52=20250910-06:20:11.702|56=ID2|1=ID214|6=347.6|11=ID811|14=226|17=ID816|20=0|30=ID7|31=347.6|32=221|37=ID812|38=917|39=1|40=2|44=347.6|54=2|55=TSLA|59=0|60=20250910-06:20:11.702|76=ID8|150=1|151=691|10=019|
20250910-02:20:17.674688 : 8=FIX.4.2|9=334|35=8|34=2998|49=ID1|52=20250910-06:20:17.674|56=ID2|1=ID214|6=347.6|11=ID811|14=276|17=ID817|20=0|30=ID7|31=347.6|32=50|37=ID812|38=917|39=1|40=2|44=347.6|54=2|55=TSLA|59=0|60=20250910-06:20:17.674|76=ID8|150=1|151=641|10=004|
20250910-02:20:20.264553 : 8=FIX.4.2|9=335|35=8|34=2999|49=ID1|52=20250910-06:20:20.264|56=ID2|1=ID214|6=347.6|11=ID811|14=676|17=ID818|20=0|30=ID7|31=347.6|32=400|37=ID812|38=917|39=1|40=2|44=347.6|54=2|55=TSLA|59=0|60=20250910-06:20:20.264|76=ID8|150=1|151=241|10=024|
20250910-02:20:21.818515 : 8=FIX.4.2|9=335|35=8|34=3000|49=ID1|52=20250910-06:20:21.818|56=ID2|1=ID214|6=347.6|11=ID811|14=776|17=ID819|20=0|30=ID7|31=347.6|32=100|37=ID812|38=917|39=1|40=2|44=347.6|54=2|55=TSLA|59=0|60=20250910-06:20:21.818|76=ID8|150=1|151=141|10=020|
20250910-02:20:22.886456 : 8=FIX.4.2|9=333|35=8|34=3001|49=ID1|52=20250910-06:20:22.886|56=ID2|1=ID214|6=347.6|11=ID811|14=917|17=ID820|20=0|30=ID7|31=347.6|32=141|37=ID812|38=917|39=2|40=2|44=347.6|54=2|55=TSLA|59=0|60=20250910-06:20:22.886|76=ID8|150=2|151=0|10=185|
20250910-02:21:05.258818 : 8=FIX.4.2|9=330|35=8|34=3003|49=ID1|52=20250910-06:21:05.258|56=ID2|1=ID824|6=25.48|11=ID821|14=50|17=ID823|20=0|30=ID7|31=25.48|32=50|37=ID822|38=50|39=2|40=2|44=25.48|54=2|55=BILI|59=0|60=20250910-06:21:05.258|76=ID8|150=2|151=0|10=211|
20250910-02:21:10.418938 : 8=FIX.4.2|9=324|35=8|34=3005|49=ID1|52=20250910-06:21:10.418|56=ID2|1=ID227|6=315|11=ID825|14=10|17=ID827|20=0|30=ID7|31=315|32=10|37=ID826|38=10|39=2|40=2|44=315|54=1|55=ORCL|59=0|60=20250910-06:21:10.418|76=ID8|150=2|151=0|10=149|
20250910-02:21:11.865390 : 8=FIX.4.2|9=336|35=8|34=3007|49=ID1|52=20250910-06:21:11.865|56=ID2|1=ID831|6=148.12|11=ID828|14=100|17=ID830|20=0|30=ID7|31=148.12|32=100|37=ID829|38=100|39=2|40=2|44=148.12|54=1|55=BABA|59=0|60=20250910-06:21:11.865|76=ID8|150=2|151=0|10=217|
20250910-02:21:16.756503 : 8=FIX.4.2|9=327|35=8|34=3008|49=ID1|52=20250910-06:21:16.756|56=ID2|1=ID835|6=25.5|11=ID832|14=99|17=ID834|20=0|30=ID7|31=25.5|32=99|37=ID833|38=99|39=2|40=2|44=25.5|54=2|55=BILI|59=0|60=20250910-06:21:16.756|76=ID8|150=2|151=0|10=101|
20250910-02:21:17.978278 : 8=FIX.4.2|9=328|35=8|34=3010|49=ID1|52=20250910-06:21:17.978|56=ID2|1=ID839|6=15.66|11=ID836|14=50|17=ID838|20=0|30=ID7|31=15.66|32=50|37=ID837|38=50|39=2|40=2|44=15.66|54=1|55=KC|59=0|60=20250910-06:21:17.978|76=ID8|150=2|151=0|10=134|
20250910-02:22:05.704046 : 8=FIX.4.2|9=328|35=8|34=3015|49=ID1|52=20250910-06:22:05.704|56=ID2|1=ID843|6=15.7|11=ID840|14=40|17=ID842|20=0|30=ID7|31=15.7|32=40|37=ID841|38=200|39=1|40=2|44=15.7|54=2|55=KC|59=0|60=20250910-06:22:05.703|76=ID8|150=1|151=160|10=049|
20250910-02:22:50.931591 : 8=FIX.4.2|9=330|35=8|34=3020|49=ID1|52=20250910-06:22:50.931|56=ID2|1=ID847|6=165.1|11=ID844|14=20|17=ID846|20=0|30=ID7|31=165.1|32=20|37=ID845|38=20|39=2|40=2|44=165.1|54=2|55=PLTR|59=0|60=20250910-06:22:50.931|76=ID8|150=2|151=0|10=207|
20250910-02:23:22.146599 : 8=FIX.4.2|9=334|35=8|34=3023|49=ID1|52=20250910-06:23:22.146|56=ID2|1=ID210|6=314.51|11=ID848|14=10|17=ID850|20=0|30=ID7|31=314.51|32=10|37=ID849|38=41|39=1|40=2|44=314.45|54=2|55=ORCL|59=0|60=20250910-06:23:22.146|76=ID8|150=1|151=31|10=140|
20250910-02:23:22.146674 : 8=FIX.4.2|9=336|35=8|34=3024|49=ID1|52=20250910-06:23:22.146|56=ID2|1=ID210|6=314.502439|11=ID848|14=41|17=ID851|20=0|30=ID7|31=314.5|32=31|37=ID849|38=41|39=2|40=2|44=314.45|54=2|55=ORCL|59=0|60=20250910-06:23:22.146|76=ID8|150=2|151=0|10=253|
20250910-02:24:09.238214 : 8=FIX.4.2|9=333|35=8|34=3027|49=ID1|52=20250910-06:24:09.238|56=ID2|1=ID203|6=147.98|11=ID852|14=50|17=ID854|20=0|30=ID7|31=147.98|32=50|37=ID853|38=50|39=2|40=2|44=147.98|54=1|55=BABA|59=0|60=20250910-06:24:09.238|76=ID8|150=2|151=0|10=105|
20250910-02:24:20.475279 : 8=FIX.4.2|9=331|35=8|34=3028|49=ID1|52=20250910-06:24:20.475|56=ID2|1=ID368|6=1.7|11=ID717|14=325|17=ID855|20=0|30=ID7|31=1.7|32=100|37=ID718|38=4632|39=1|40=2|44=1.7|54=1|55=FFAI|59=0|60=20250910-06:24:20.475|76=ID8|150=1|151=4307|10=252|
20250910-02:24:49.477173 : 8=FIX.4.2|9=330|35=8|34=3029|49=ID1|52=20250910-06:24:49.477|56=ID2|1=ID859|6=2.52|11=ID856|14=100|17=ID858|20=0|30=ID7|31=2.52|32=100|37=ID857|38=100|39=2|40=2|44=2.52|54=1|55=CUPR|59=0|60=20250910-06:24:49.476|76=ID8|150=2|151=0|10=240|
20250910-02:26:29.321205 : 8=FIX.4.2|9=327|35=8|34=3035|49=ID1|52=20250910-06:26:29.321|56=ID2|1=ID863|6=9.4|11=ID860|14=139|17=ID862|20=0|30=ID7|31=9.4|32=139|37=ID861|38=139|39=2|40=2|44=9.4|54=1|55=CIFR|59=0|60=20250910-06:26:29.310|76=ID8|150=2|151=0|10=144|
20250910-02:27:51.512896 : 8=FIX.4.2|9=332|35=8|34=3039|49=ID1|52=20250910-06:27:51.512|56=ID2|1=ID368|6=1.7|11=ID717|14=1225|17=ID864|20=0|30=ID7|31=1.7|32=900|37=ID718|38=4632|39=1|40=2|44=1.7|54=1|55=FFAI|59=0|60=20250910-06:27:51.512|76=ID8|150=1|151=3407|10=053|
20250910-02:27:57.341819 : 8=FIX.4.2|9=329|35=8|34=3040|49=ID1|52=20250910-06:27:57.341|56=ID2|1=ID843|6=15.7|11=ID840|14=140|17=ID865|20=0|30=ID7|31=15.7|32=100|37=ID841|38=200|39=1|40=2|44=15.7|54=2|55=KC|59=0|60=20250910-06:27:57.341|76=ID8|150=1|151=60|10=106|
20250910-02:28:24.947843 : 8=FIX.4.2|9=333|35=8|34=3044|49=ID1|52=20250910-06:28:24.947|56=ID2|1=ID869|6=148.13|11=ID866|14=11|17=ID868|20=0|30=ID7|31=148.13|32=11|37=ID867|38=11|39=2|40=2|44=148.13|54=1|55=BABA|59=0|60=20250910-06:28:24.947|76=ID8|150=2|151=0|10=108|
20250910-02:29:22.953124 : 8=FIX.4.2|9=332|35=8|34=3050|49=ID1|52=20250910-06:29:22.953|56=ID2|1=ID873|6=6.09|11=ID870|14=1779|17=ID872|20=0|30=ID7|31=6.09|32=1779|37=ID871|38=1779|39=2|40=2|44=6.09|54=1|55=NIO|59=0|60=20250910-06:29:22.952|76=ID8|150=2|151=0|10=123|
20250910-02:29:43.298092 : 8=FIX.4.2|9=326|35=8|34=3051|49=ID1|52=20250910-06:29:43.298|56=ID2|1=ID877|6=51.3|11=ID874|14=85|17=ID876|20=0|30=ID7|31=51.3|32=85|37=ID875|38=85|39=2|40=2|44=51.3|54=1|55=NVO|59=0|60=20250910-06:29:43.297|76=ID8|150=2|151=0|10=023|
20250910-02:30:06.459401 : 8=FIX.4.2|9=333|35=8|34=3054|49=ID1|52=20250910-06:30:06.459|56=ID2|1=ID881|6=51.29|11=ID878|14=12|17=ID880|20=0|30=ID7|31=51.29|32=12|37=ID879|38=1000|39=1|40=2|44=51.29|54=1|55=NVO|59=0|60=20250910-06:30:06.459|76=ID8|150=1|151=988|10=116|
20250910-02:30:06.764427 : 8=FIX.4.2|9=334|35=8|34=3055|49=ID1|52=20250910-06:30:06.764|56=ID2|1=ID881|6=51.29|11=ID878|14=1000|17=ID882|20=0|30=ID7|31=51.29|32=988|37=ID879|38=1000|39=2|40=2|44=51.29|54=1|55=NVO|59=0|60=20250910-06:30:06.764|76=ID8|150=2|151=0|10=154|
20250910-02:31:31.003886 : 8=FIX.4.2|9=332|35=8|34=3058|49=ID1|52=20250910-06:31:31.003|56=ID2|1=ID886|6=96.51|11=ID883|14=138|17=ID885|20=0|30=ID7|31=96.51|32=138|37=ID884|38=138|39=2|40=2|44=96.51|54=1|55=WDC|59=0|60=20250910-06:31:31.003|76=ID8|150=2|151=0|10=078|
20250910-02:32:14.380530 : 8=FIX.4.2|9=337|35=8|34=3062|49=ID1|52=20250910-06:32:14.380|56=ID2|1=ID890|6=582.26|11=ID887|14=300|17=ID889|20=0|30=ID7|31=582.26|32=300|37=ID888|38=500|39=1|40=2|44=582.26|54=1|55=QQQ|59=0|60=20250910-06:32:14.380|76=ID8|150=1|151=200|10=086|
20250910-02:32:30.689511 : 8=FIX.4.2|9=335|35=8|34=3064|49=ID1|52=20250910-06:32:30.689|56=ID2|1=ID890|6=582.26|11=ID887|14=500|17=ID891|20=0|30=ID7|31=582.26|32=200|37=ID888|38=500|39=2|40=2|44=582.26|54=1|55=QQQ|59=0|60=20250910-06:32:30.689|76=ID8|150=2|151=0|10=255|
20250910-02:32:54.755251 : 8=FIX.4.2|9=326|35=8|34=3067|49=ID1|52=20250910-06:32:54.755|56=ID2|1=ID895|6=16.98|11=ID892|14=1|17=ID894|20=0|30=ID7|31=16.98|32=1|37=ID893|38=1|39=2|40=2|44=16.96|54=2|55=CHA|59=0|60=20250910-06:32:54.755|76=ID8|150=2|151=0|10=008|
20250910-02:32:58.595500 : 8=FIX.4.2|9=327|35=8|34=3068|49=ID1|52=20250910-06:32:58.595|56=ID2|1=ID843|6=15.7|11=ID840|14=200|17=ID896|20=0|30=ID7|31=15.7|32=60|37=ID841|38=200|39=2|40=2|44=15.7|54=2|55=KC|59=0|60=20250910-06:32:58.595|76=ID8|150=2|151=0|10=035|
20250910-02:33:19.001092 : 8=FIX.4.2|9=329|35=8|34=3069|49=ID1|52=20250910-06:33:19.001|56=ID2|1=ID900|6=40.5|11=ID897|14=200|17=ID899|20=0|30=ID7|31=40.5|32=200|37=ID898|38=200|39=2|40=2|44=40.5|54=1|55=TMF|59=0|60=20250910-06:33:19.000|76=ID8|150=2|151=0|10=094|
20250910-02:33:42.502347 : 8=FIX.4.2|9=330|35=8|34=3070|49=ID1|52=20250910-06:33:42.502|56=ID2|1=ID904|6=27.9|11=ID901|14=100|17=ID903|20=0|30=ID7|31=27.9|32=100|37=ID902|38=100|39=2|40=2|44=27.9|54=2|55=SOXL|59=0|60=20250910-06:33:42.502|76=ID8|150=2|151=0|10=218|
20250910-02:35:31.654736 : 8=FIX.4.2|9=333|35=8|34=3083|49=ID1|52=20250910-06:35:31.654|56=ID2|1=ID908|6=105.75|11=ID905|14=10|17=ID907|20=0|30=ID7|31=105.75|32=10|37=ID906|38=10|39=2|40=2|44=105.75|54=2|55=CRWV|59=0|60=20250910-06:35:31.654|76=ID8|150=2|151=0|10=119|
20250910-02:35:47.673294 : 8=FIX.4.2|9=326|35=8|34=3086|49=ID1|52=20250910-06:35:47.673|56=ID2|1=ID912|6=45.15|11=ID909|14=1|17=ID911|20=0|30=ID7|31=45.15|32=1|37=ID910|38=1|39=2|40=2|44=45.15|54=2|55=OXY|59=0|60=20250910-06:35:47.673|76=ID8|150=2|151=0|10=053|
20250910-02:35:56.845811 : 8=FIX.4.2|9=333|35=8|34=3088|49=ID1|52=20250910-06:35:56.845|56=ID2|1=ID916|6=28.89|11=ID913|14=43|17=ID915|20=0|30=ID7|31=28.89|32=43|37=ID914|38=941|39=1|40=2|44=28.89|54=2|55=HSAI|59=0|60=20250910-06:35:56.845|76=ID8|150=1|151=898|10=187|
20250910-02:36:18.490480 : 8=FIX.4.2|9=330|35=8|34=3095|49=ID1|52=20250910-06:36:18.490|56=ID2|1=ID920|6=16.41|11=ID917|14=50|17=ID919|20=0|30=ID7|31=16.41|32=50|37=ID918|38=110|39=1|40=2|44=16.41|54=2|55=EH|59=0|60=20250910-06:36:18.490|76=ID8|150=1|151=60|10=173|
20250910-02:36:18.490558 : 8=FIX.4.2|9=330|35=8|34=3096|49=ID1|52=20250910-06:36:18.490|56=ID2|1=ID920|6=16.41|11=ID917|14=102|17=ID921|20=0|30=ID7|31=16.41|32=52|37=ID918|38=110|39=1|40=2|44=16.41|54=2|55=EH|59=0|60=20250910-06:36:18.490|76=ID8|150=1|151=8|10=169|
20250910-02:36:18.490642 : 8=FIX.4.2|9=329|35=8|34=3097|49=ID1|52=20250910-06:36:18.490|56=ID2|1=ID920|6=16.41|11=ID917|14=110|17=ID922|20=0|30=ID7|31=16.41|32=8|37=ID918|38=110|39=2|40=2|44=16.41|54=2|55=EH|59=0|60=20250910-06:36:18.490|76=ID8|150=2|151=0|10=139|
20250910-02:36:54.510764 : 8=FIX.4.2|9=328|35=8|34=3102|49=ID1|52=20250910-06:36:54.510|56=ID2|1=ID926|6=5.93|11=ID923|14=16|17=ID925|20=0|30=ID7|31=5.93|32=16|37=ID924|38=30|39=1|40=2|44=5.93|54=1|55=NVTS|59=0|60=20250910-06:36:54.510|76=ID8|150=1|151=14|10=144|
20250910-02:36:54.510855 : 8=FIX.4.2|9=327|35=8|34=3103|49=ID1|52=20250910-06:36:54.510|56=ID2|1=ID926|6=5.93|11=ID923|14=30|17=ID927|20=0|30=ID7|31=5.93|32=14|37=ID924|38=30|39=2|40=2|44=5.93|54=1|55=NVTS|59=0|60=20250910-06:36:54.510|76=ID8|150=2|151=0|10=080|
20250910-02:37:19.019311 : 8=FIX.4.2|9=337|35=8|34=3105|49=ID1|52=20250910-06:37:19.019|56=ID2|1=ID931|6=105.79|11=ID928|14=120|17=ID930|20=0|30=ID7|31=105.79|32=120|37=ID929|38=140|39=1|40=2|44=105.79|54=1|55=CRWV|59=0|60=20250910-06:37:19.019|76=ID8|150=1|151=20|10=084|
20250910-02:37:56.262171 : 8=FIX.4.2|9=335|35=8|34=3115|49=ID1|52=20250910-06:37:56.262|56=ID2|1=ID931|6=105.79|11=ID928|14=140|17=ID932|20=0|30=ID7|31=105.79|32=20|37=ID929|38=140|39=2|40=2|44=105.79|54=1|55=CRWV|59=0|60=20250910-06:37:56.262|76=ID8|150=2|151=0|10=249|
20250910-02:38:13.492634 : 8=FIX.4.2|9=330|35=8|34=3117|49=ID1|52=20250910-06:38:13.492|56=ID2|1=ID926|6=173.95|11=ID933|14=2|17=ID935|20=0|30=ID7|31=173.95|32=2|37=ID934|38=2|39=2|40=2|44=173.95|54=1|55=NVDA|59=0|60=20250910-06:38:13.492|76=ID8|150=2|151=0|10=247|
20250910-02:39:02.477177 : 8=FIX.4.2|9=330|35=8|34=3119|49=ID1|52=20250910-06:39:02.477|56=ID2|1=ID939|6=7.25|11=ID936|14=23|17=ID938|20=0|30=ID7|31=7.25|32=23|37=ID937|38=500|39=1|40=2|44=7.25|54=1|55=SNAP|59=0|60=20250910-06:39:02.477|76=ID8|150=1|151=477|10=252|
20250910-02:39:04.978179 : 8=FIX.4.2|9=326|35=8|34=3121|49=ID1|52=20250910-06:39:04.978|56=ID2|1=ID943|6=9.49|11=ID940|14=80|17=ID942|20=0|30=ID7|31=9.49|32=80|37=ID941|38=80|39=2|40=2|44=9.49|54=2|55=WRD|59=0|60=20250910-06:39:04.978|76=ID8|150=2|151=0|10=075|
20250910-02:40:04.219862 : 8=FIX.4.2|9=333|35=8|34=3130|49=ID1|52=20250910-06:40:04.219|56=ID2|1=ID839|6=147.44|11=ID944|14=20|17=ID946|20=0|30=ID7|31=147.44|32=20|37=ID945|38=20|39=2|40=2|44=147.48|54=1|55=BABA|59=0|60=20250910-06:40:04.219|76=ID8|150=2|151=0|10=088|
